:020000040800F2
:2040000050D0002039510308814203088342030885420308874203088942030800000000B1
:204020000000000000000000000000008B4203088D420308000000008F4203089142030814
:20404000C5520308C9520308CD520308D1520308D5520308D9520308DD520308E1520308E0
:2040600009430308F1420308E5520308E9520308ED520308F1520308CD420308F55203081F
:20408000F9520308FD5203080153030805530308095303080D53030811530308FF42030821
:2040A00015530308195303081D530308AD420308B7420308215303089942030825530308B5
:2040C000295303082D5303083153030835530308395303083D530308415303084553030838
:2040E000495303084D5303085153030855530308595303085D530308615303086553030818
:20410000695303086D530308A34203087153030875530308795303087D53030881530308EA
:2041200085530308C1420308895303088D5303089153030895530308995303089D530308E8
:20414000A1530308A5530308A9530308AD530308B1530308B5530308B9530308BD530308F7
:20416000C1530308C5530308C9530308CD530308D1530308D5530308D95303080000000012
:20418000DD530308E153030810B52DED0C8BF0EE608A0446B0EE408AB0EE419A18EE900A9C
:2041A0000BF058FA41EC1A0B21F0004141EC1D0B19EE100A0BF04EFA41EC1B0B18EE100AE2
:2041C0000BF048FA41EC1C0B53EC1C2B51EC1D0B23F000430BF06AFA5FD251EC1B0B53ECDB
:2041E0001C2B21F0004123F000430BF05FFA54D251EC1A0BB5EE408A21F000419FEDDCDBF2
:20420000F1EE10FA41EC100B53EC102B51EC1D0B21DD0BF063FA53EC1C2B23F000430BF061
:2042200045FA80F0DB8051EC1B0B21F0004141EC100B53EC102B51EC1D0B0BF04FFA53EC15
:204240001C2B23F000430BF031FA80F0C780BDEC0C8B042010BD0BF041FA53EC1C2B23F0E4
:2042600000430BF023FA80F0B98051EC1B0B21F0004141EC100B53EC102B51EC1D0B0BF063
:204280002DFA53EC1C2B23F000430BF00FFA80F0A580BDEC0C8B052010BD51EC1B0B53ECAE
:2042A0001A2B21F0004123F000430BF0FFF99FEDB0DB4ED251EC1C0BF5EE408A21F0004184
:2042C000F1EE10FA41EC100B53EC102B51EC1D0B1FDD0BF003FA53EC1A2B23F000430BF005
:2042E000E5F97BD251EC1B0B21F0004141EC100B53EC102B51EC1D0B0BF0F0F953EC1A2B4F
:2043000023F000430BF0D2F968D2BDEC0C8B012010BD0BF0E3F953EC1A2B23F000430BF06D
:20432000C5F95BD251EC1B0B21F0004141EC100B53EC102B51EC1D0B0BF0D0F953EC1A2B6E
:2043400023F000430BF0B2F948D2BDEC0C8B032010BDB5EE409AF1EE10FA51EC1D0B1FDD50
:204360000BF0BCF953EC1B2B23F000430BF09EF934D251EC1C0B21F0004141EC100B53ECDD
:20438000102B51EC1D0B0BF0A9F953EC1B2B23F000430BF08BF921D2BDEC0C8B002010BD66
:2043A0000BF09CF953EC1B2B23F000430BF07EF914D251EC1C0B21F0004141EC100B53ECFD
:2043C000102B51EC1D0B0BF089F953EC1B2B23F000430BF06BF938BF022000D32046BDEC8B
:2043E0000C8B10BD30B581B0DFF8285A0C462DED068B29689FED5D8A7BB990ED009AD0EDE1
:20440000019A90ED02AAD0ED03AA92ED021AD2ED010A92ED000A084612E090ED020A90ED3A
:20442000019AD0ED009AD0ED03AAD2ED000AB1EE40AA92ED020AB1EE401A084692ED010A72
:20444000FFF7A2FE0528286000F27880DFE800F074036D356D7429EE090A09EEE90A0AEE6A
:204460004A0A0AEEAA0A10EE100A0BF0F3F829EE290A0AEE2A0AF0EE000A41EC110B20EE89
:20448000200AB0EE418AF0EE618A10EE100A0BF0E1F841EC100BB0EE481AF0EE681A0BF031
:2044A0005FFA53EC102B4FF00050DFF86C190BF015F90022DFF8643930E029EE090A09EE6E
:2044C000E90A0AEE4A0A0AEEAA0A10EE100A0BF0C1F829EE290A0AEE2A0AF0EE000A41EC9A
:2044E000110B20EE200AB0EE418AF0EE618A10EE100A0BF0AFF841EC100BB0EE481AF0EE56
:20450000681A0BF02DFA53EC102B4FF00050DFF808190BF0E3F80022DFF804390BF02AFACB
:204520000BF09CFA08EE100A08E094ED000ADFEDC40A30EE208A01E094ED008A9FEDC10AC2
:20454000B4EE408AF1EE10FAA4BFDFEDBF0A38EE208AB5EE408AF1EE10FA48BF38EE008A31
:20456000B0EE480ABDEC068B01B030BD00000000000000E051B8F63F30B5DFF8A848002089
:20458000C4F8540EC4F8580E84F8D60884F8D50884F8D4084FF45D6185B004F6C450214427
:2045A00004F6DC520323002500F8015B01F8015B02F8015B00F8015B01F8015B02F8015B8A
:2045C00000F8015B01F8015B5B1E02F8015BEBD10120ADF80C0000954FF46062DFF8480814
:2045E00001904FF0FF400290C4F8700E04F6F451DFF838080290C4F8740E22449DED000BBF
:20460000DFF82C0884ED000B80F8CE5880F8CD5880F8CC5804F6E8505FF0030300F8015B61
:2046200001F8015B02F8015B00F8015B01F8015B02F8015B00F8015B01F8015B5B1E02F8B4
:20464000015BEBD14FF42D6021184FF43C60204401F088FC04F60C3104F6B84002F09EFDCB
:2046600004F62C6204F6286104F6246001F0E2FA04F62C6204F6286104F6246002F0F6FB78
:2046800004F60C309FED9E0A80ED000A04F61030F7EE080AC0ED000A04F618309FED991AD0
:2046A00080ED001A04F63430DFED971AC0ED001A04F638309FED952A80ED002A04F63C3027
:2046C000DFED932AC0ED002A022084F8450B9FED913A012084F8210B84F8465B04F64030E5
:2046E00084F8225B80ED003A012084F8230B84F8240B84F80A5B04F6D02005B080ED000AAD
:2047000004F6D420C0ED000A04F6DC2080ED001A04F6F820C0ED001A04F6FC2080ED002AF1
:2047200004F60030C0ED002A022084F8090B012084F8E50A04F6043080ED003A012084F8C8
:20474000E60A84F8E70A84F8E80A30BD10B5002874D0DFF8D0460168C4F80C1B04F62C62AF
:204760004168C4F8101B8168C4F8181B017B84F8211B0169C4F8341B4169C4F8381B816985
:20478000C4F83C1B90F8281084F8451B90F8351084F8461B0168C4F8D01A4168C4F8D41A5E
:2047A0008168C4F8DC1A017B84F8E51AC169C4F8F81A016AC4F8FC1A416AC4F8001B90F828
:2047C000281084F8091B90F8351084F80A1B816BC4F83C1E90F8291084F8241E90F82D104D
:2047E00084F8281E90F8311084F82C1E90F82A1084F8251E90F82E1084F8291E90F8321094
:2048000084F82D1E90F82B1084F8261E90F82F1084F82A1E04F6286190F8330084F82E0ECD
:2048200004F6246001F006FA04F62C6204F6286104F62460BDE8104002F018BB10BD0000F9
:20484000000034430000B4430000B4C3002855D0DFF8D015D1F8D02A0260D1F8D42A4260DC
:20486000D1F8DC2A826091F8E52A0273D1F8342B0261D1F8382B4261D1F83C2B8261D1F844
:20488000F82AC261D1F8FC2A0262D1F8002B426291F8092B80F8282091F80A2B80F83520E0
:2048A000D1F83C2E826391F8242E80F8292091F8282E80F82D2091F82C2E80F8312091F86B
:2048C000252E80F82A2091F8292E80F82E2091F82D2E80F8322091F8262E80F82B2091F846
:2048E0002A2E80F82F2091F82E1E80F83310002180F82C1080F8301080F834107047000009
:204900006666663F83C02A3F17B7513A3480373A3480373BCDCCCC3D70B504460846DFF8A0
:2049200004652DED028B84B0C168C6F8D81B15000168C6F8CC1BB0EE408A8169C6F8E41B27
:2049400008BF6D46C168C6F8D01C0168C6F8C41C8169C6F8DC1C0169C6F8DC1B4168C6F8DD
:20496000D01BC169C6F8E81B0169C6F8D41C4168C6F8C81CC169C6F8E01C4169C6F8E01BB7
:204980008168C6F8D41B016AC6F8EC1B4169C6F8D81C8168C6F8CC1C016AC6F8E41CD6F86F
:2049A0003C1E51B196F8081BC90706D500F03EF9012804BF0020C6F83C0ED6F8540E70B1B3
:2049C00096F8440BC0070AD52B4606F60C32B0EE480A06F6B84106F6D41001F09FFFD6F887
:2049E000580E80B196F8080BC0070CD54FF42D6032184FF43C6031182B46B0EE480A06F638
:204A0000D80000F033FED6F8EC09606404F15402D6F8F008E06004F13801D6F8F009A064CC
:204A2000D6F8F4082061D6F8F409E064D6F8F8086061D6F8F8092065D6F8FC08A061D6F898
:204A4000E009A063D6F8680A6065D6F8740A2066D6F8E4082060D6F86C09E061D6F8780986
:204A6000A062D6F8E409E063D6F86C0AA065D6F8780A6066D6F8E8086060D6F87009206290
:204A8000D6F87C09E062D6F8E8092064D6F8700AE065D6F87C0AA066D6F8EC08A060D6F8C7
:204AA00074096062D6F88009206304F1440096F8463BFFF797FC84ED1B0A04F11C0296F8D5
:204AC0000A3B214604F10C00FFF78CFC84ED0D0A04B0BDEC028B70BD30B50446D14D81B08E
:204AE0002DED028BC868C5F8D80BB0EE408A0868C5F8CC0B8869C5F8E40BC868C5F8D00C6D
:204B00000868C5F8C40C8869C5F8DC0C0869C5F8DC0B4868C5F8D00BC869C5F8E80B086953
:204B2000C5F8D40C4868C5F8C80CC869C5F8E00C4869C5F8E00B8868C5F8D40B086AC5F8A9
:204B4000EC0B4869C5F8D80C8868C5F8CC0C086AC5F8E40CD5F8580E48B14FF42D602A182A
:204B60004FF43C60291805F6D80000F063F9D5F8540E48B105F60C32B0EE480A05F6B841B1
:204B800005F6D41001F09EFAD5F8EC096064D5F8F008E060D5F8F009A064D5F8F40820610E
:204BA000D5F8F409E064D5F8F8086061D5F8F8092065D5F8FC08A061D5F8E009A063D5F8AE
:204BC000680A6065D5F8740A2066D5F8E4082060D5F86C09E061D5F87809A062D5F8E40907
:204BE000E063D5F86C0AA065D5F8780A6066D5F8E8086060D5F870092062D5F87C09E0623C
:204C0000D5F8E8092064D5F8700AE065D5F87C0AA066D5F8EC08A060D5F874096062D5F8D3
:204C200080092063BDEC028B01B030BD30B47D48D0F84C1E012905DB491EC0F84C1E002006
:204C400030BC7047D0F8504ED0F8582E611C002A43D0D0F8443E00EE904A00EE101AF8EE33
:204C6000E00A01EE103AD0F80C34B8EEC00A20EE811A01EE903A81EE001AC1EE801A00F66F
:204C8000446331EE211A83ED001AD0F8403E01EE103AD0F8103420EE811A01EE903A81EE2D
:204CA000001AC1EE801A00F6406331EE211A83ED001AD0F8483E01EE103AD0F8143460EE2F
:204CC000810AC0EE800A01EE103A81EE000A00F6486330EE800A83ED000AD0F8543E002B17
:204CE00044D0D0F8445E00EE904A514C00EE101AF8EEE00A01EE105AD4F80454B8EEC00AFC
:204D000020EE811A01EE905A81EE001AC1EE801A00F6446531EE211A85ED001AD0F8405E54
:204D200001EE105AD4F8085420EE811A01EE905A81EE001AC1EE801A00F6406531EE211AA9
:204D400085ED001AD0F8485ED4F80C4401EE105A60EE810AC0EE800A01EE104A81EE000A11
:204D600000F6486430EE800A84ED000AB1F5FA7FC0F8501E7FF463AFFAB1D0F8401E00EEE5
:204D8000101AF6EE000A00F6FC2120EE200A81ED000AD0F8481E00EE101A00F6003120EEBD
:204DA000200A81ED000AD0F8441E00EE101A00F6F82120EE200A81ED000AFBB1F6EE000AB6
:204DC000D0F8401E00EE101A00F6383120EE200A81ED000AD0F8481E00EE101A00F63C31DD
:204DE00020EE200A81ED000AD0F8441E00EE101A00F6343120EE200A81ED000A0021C0F8DD
:204E0000441EC0F8401EC0F8481EC0F8501E012030BC704724510120DCA54C40008056C0D9
:204E200000805640000000200000F8FF000080FF780E00202DE9F043DFF82C9D0E4681B0B2
:204E400017460FF608012DED0A8BB0EE408AA2B0B1E81C10054602A80FF60001A0E81C100A
:204E6000B1E81C1009A809F6DC51A0E81C1099F9C40D96ED061AD6ED070A96ED080A97F8DE
:204E8000394001EE900AF8EEE11A99F9C50D61EE819A01EE900AF8EEE11A99F9C60D41EE63
:204EA000A09A01EE900AF8EEE11A99F9C70D41EE809A01EE900AF8EEE11A99F9C80D21EEBF
:204EC000819A01EE900AF8EEE11A99F9C90D01EEA09A01EE900AF8EEE11A99F9CA0D01EEFA
:204EE000809A01EE900AF8EEE11A99F9CB0D21EE81AA01EE100AB8EEC11A99F9CC0D01EEA6
:204F000020AA00EE900AF8EEE00A00EE80AA06F1240206A800F02CFE99F9D00D96ED031A63
:204F2000D6ED040A96ED050A01EE900AF8EEE11A99F9D10D61EE818A01EE900AF8EEE11A70
:204F400099F9D20D41EEA08A01EE900AF8EEE11A99F9D30D41EE808A01EE900AF8EEE11A08
:204F600099F9D40D61EE81AA01EE900AF8EEE11A99F9D50D41EEA0AA01EE900AF8EEE11A83
:204F800099F9D60D41EE80AA01EE900AF8EEE11A99F9D70D21EE811A01EE900AF8EEE11A4F
:204FA00099F9D80D01EEA01A00EE900A0DF11808F8EEE00A00EE801AD8ED010A9DED060A69
:204FC00099F8340EF1EE600AB1EE400AB1EE499AF1EE699ACDED060A88ED010AB1EE41BA84
:204FE00038B329EE090A09EEA90A0AEE0A0A10EE100A0AF02FFB41EC100B0AF077FD51ECB7
:20500000100B0AF02BFD00EE100A89EE009AC9EE809A8AEE00AA2AEEAA0A08EEA80A0BEEDA
:205020000B0A10EE100A0AF015FB41EC100B0AF05DFD97F8390010B9012087F83900387F7C
:2050400097F83910401CC0B290FBF1F201FB1200387700EE101AB8EE400ADDED060A80EE2F
:20506000800AD6ED0C0A30EE200A86ED0C0A97F83900D8ED010A00EE100AB8EE400A80EEFE
:20508000800AD6ED0D0A30EE200A86ED0D0A97F83900D8ED020A00EE100AB8EE400A80EEDB
:2050A000800AD6ED0E0A30EE200A86ED0E0A387E60B109A8009006F17803B0EE480A06F157
:2050C0006C0206A906F1780006F03EFC05F11800019006F1E80306F19800009006F1D802A3
:2050E00006F1B80109A806F0C7FC97F8240001280AD1DFF86C1EB1E80C500DA805F11801C5
:20510000A0E80C50A1E80C5097F83A8095ED060AB1EE400A85ED060A0DA995ED070AB1EE98
:20512000400A85ED070A05F1180095ED080AB1EE400A85ED080A06F0A4FDB8F1000F10D163
:205140000DA88169C5F89410C169C5F8981005F10C01006AC5F89C0005F1180006F079F984
:20516000A2E0B8F1010F40F09F800DA8C269C5F894208269C5F8982090ED080AB1EE400A7C
:2051800085ED270A40F0908095ED080AD5ED06AAD5ED07BA95ED09CAB1EE40BA2AEEAA0AE9
:2051A000F0EE000A60EE20CA2BEE0B0AB7EE001A00EE601A31EE6C0A10EE100A0AF04AFA8F
:2051C0002BEE0C0A0AEEAB0AF0EE000A41EC110B20EE200AB0EE418AF0EE618A10EE100A40
:2051E0000AF038FA41EC100BB0EE481AF0EE681A0AF0B6FB51EC100B81F000410AF02EFC02
:20520000B7EE000AE86030EE6C0A6BEEAB0AB0EE001A00EEC10A10EE100A0AF01BFA2AEE45
:205220008B0A0BEE8C0AF0EE000A41EC110B20EE200AB0EE418AF0EE618A10EE100A0AF09D
:2052400009FA41EC100BB0EE481AF0EE681A0AF087FB51EC100B81F000410AF0FFFB2AEE11
:205260008C0A28610BEE6B0AF0EE000A20EE200A10EE100A0AF0EEF941EC100B0AF040FD09
:2052800051EC100B81F000410AF0E8FB95ED030A6861B5EE400AF1EE10FA05D5DFEDE80A61
:2052A00030EE200A85ED030A9FEDE60AD5ED030A60EE800AC5ED030AB8F1000FD5ED040ABD
:2052C00060EE800AC5ED040AD5ED050A20EE800A85ED050A10D195ED250A30EE490A85EDD7
:2052E000280A95ED260A30EE690A85ED290A95ED270A30EE4A0A12E0B8F1010F11D195ED60
:20530000250A30EE690A85ED280A95ED260A30EE490A85ED290A95ED270A30EE0A0A85ED0A
:205320002A0A0020B87697F83800810705D4397F91FBF4F204FB121139B106F1A80206F1F5
:20534000A80109A806F0EAF85BE140F0010087F8380096ED220AD6F88C00C6F89C0086ED21
:20536000260AD6F89000C6F8A000D6F89400C6F8A400DDED090A9DED091AF4EE410AF1EEE7
:2053800010FA02BFD6ED2A0AF4EE600AF1EE10FA40F04E81D6ED320AF4EE600AF1EE10FAE3
:2053A00004BFB4EE400AF1EE10FA40F041810DAA06F1A80109A806F0B1F896ED320AD6ED3A
:2053C000330A96ED341AD6ED351A96ED252A8DED112A11A8D6ED242AB1EE623A80ED043A76
:2053E00011A9D6ED233AC0ED083A042296ED224AC0ED012AF1EE444AC0ED0C4AC0ED094A87
:20540000F1EE634A80ED052AC0ED0D4AC0ED024A80ED064A80ED0A2A80ED0E3A80ED034A9A
:20542000C0ED073AC0ED0B2A80ED0F2A02A800239FED854A0360D1ED003A91ED013AD1EDFC
:20544000022A91ED032A00EE234A00EE834A01EE224A01EE824A80ED004A1031001D521EC4
:20546000E6D102999DED024A9DED0D0A0DA8B1EE444AD0ED010A90ED021AD0ED031A02AC98
:2054800011A8D4ED022AD4ED013A94ED032A816180ED0C4A80ED094AB1EE623A029980ED14
:2054A000043AB1EE634AC0ED083AC0ED012A80ED052A80ED0D4A80ED024A80ED0A2A80ED74
:2054C0000E3AC160C0ED073AC0ED0B2A80ED0F2A8DED112A02A811A95FF004029FED5A4A4F
:2054E0000360D1ED003A91ED013AD1ED022A91ED032A00EE234A00EE834A01EE224A01EEA3
:20550000824A80ED004A1031001D521EE6D19DED020ADDED020A94ED018AD4ED028A94ED3D
:20552000039A9FED491A00EE201A08EE081A08EEA81A09EE091A11EE100A0AF08BF841EC0A
:20554000100B0AF0D3FA51EC100B0AF087FA00EE100ADDED020AC0EE800ACDED020ADDEDF0
:20556000021A9DED022AF4EE421AC8EE000A88EE801A89EE000AF1EE10FAC4ED010A84EDB4
:20558000021A84ED030A53D10298B067C6ED1F0A86ED201A86ED210A06F1D801D6F8A8002F
:2055A000C6F8B800D6F8AC00C6F8BC00D6F8B000C6F8C000D6F8B400C6F8C40097F83900B9
:2055C00000EE100AB8EE400A06F1C80006F0A4FADFF88C09B0E81C100DA91038A1E81C109D
:2055E0000DA9B1E8185006F1A8020DA9A2E81850B0E81C10A1E81C100DA806F1E8015CC879
:205600005CC197F83A0001280BD1D5ED080AE86995ED060A85ED070AB1EE600AA86185EDE1
:20562000080A22B00020BDEC0A8B01B0BDE8F08322B04FF0FF30BDEC0A8B01B0BDE8F08318
:20564000560EC940E12E6542000000000000000000000000000000000000803F0000000068
:2056600000000000000000000000803F2DE9F041DFF8F48404462DED0A8B98F9CA0D01EE85
:20568000100AB8EEC11A98F9CB0D0D46E0B0D5ED062A95ED092AD5ED070AD5ED0A1A61EE74
:2056A000228A01EE100AB8EEC11A98F9CC0D41EE208AB0EE408A01EE100A98F9E20D95EDFE
:2056C000080A03EE100AB8EEC33A98F9E30D23EE029A03EE100AB8EEC33A98F9E40DB8EE06
:2056E000C11A03EE219A41EE008A03EE100A95ED0B1A98F9C70DB8EEC33A03EE019A03EE33
:20570000100A98F9C80DB8EEC33A03EE900A23EE223AF8EEE33A98F9C90D03EEA03A03EE48
:20572000900AF8EEE33A03EE803A98F9C40DF1EE439A03EE100AB8EEC33A98F9C50D63EEA1
:20574000222A03EE100AB8EEC33A98F9C60D43EE202A00EE900A98F9DF0DF8EEE00A40EE6D
:20576000802A00EE100A98F9E00DB8EEC00A00EE900A20EE020AF8EEE00A98F9E10D00EEAA
:20578000A10A00EE900AF8EEE00A00EE810A98F9DC0DF1EE40AA00EE100A98F9DD0DB8EE21
:2057A000C00A00EE900A20EE020AF8EEE00A98F9DE0D00EEA10A00EE900A98F9D30D01EEB0
:2057C000900AF8EEE11A98F9D40DF8EEE00A00EE810A95ED031AD5ED040A61EE81BA01EEAB
:2057E000900AF8EEE11A98F9D50D41EEA0BAB1EE40BA01EE900A95ED050A98F9D00DF8EE2B
:20580000E11A41EE80BA01EE900AF8EEE11A98F9D10D21EE81CA01EE900AF8EEE11A98F9F6
:20582000D20D01EEA0CA01EE900AF8EEE11A98F9D60D01EE80CA01EE900AF8EEE11A98F91E
:20584000D70D21EE811A01EE900AF8EEE11A98F9D80D01EEA01A00EE900AF8EEE00A00EEEB
:20586000801A98F8340E16461F46B1EE62AAF1EE41CA98B329EEA90A0AEE0A0A08EEA80A9D
:2058800010EE100A09F0E6FE41EC100B0AF02EF951EC100B0AF0E2F800EE100AC9EE809AA5
:2058A0008AEE00AAC8EE808A2BEEAB0A0CEE0C0A0CEEAC0A10EE100A09F0CCFE41EC100B55
:2058C0000AF014F951EC100B0AF0C8F800EE100ACBEE80BA8CEE00CACCEE80CAF8222946E3
:2058E00096F8380040F0020080F0010086F8380096F8390000EE100AA86FC5F88800B8EEB8
:20590000400AE86FC5F88C0020EE088AD5F88000C5F89000D5F88400C5F8940019A80AF006
:2059200007FACDED1F9A8DED20AACDED218ACDED1CBA8DED1DCACDED1ECACDED22AA8DEDB7
:2059400023BA8DED249A002028636863A86308F10800119004F1FA00109004F1F9000F90F3
:2059600004F1F8000E9016A80D9004F158000C9004F1EC000B9004F1E8000A9057A80990CD
:2059800005F1C800089012A80790307E0690F07D0590B07D0490707D0390307D029034A8BE
:2059A000019028A80090706B09F054FE41EC170BD6ED0C6A96ED0B6AD6ED0A2A306AF0EEE1
:2059C000628AB0EE46AAF0EE66AAB0EE479AF0EE679A09F03FFE41EC150BB0EE497AF0EE3F
:2059E000697AF0EE6A6AB0EE4A6AB07EB0EE459AF0EE659AB0EE46BAF0EE66BAB0EE47AA0D
:205A0000F0EE67AA0AF0CAF941EC140BB0EE4A7AF0EE6A7AF0EE6B6AB0EE4B6AB0EE495A23
:205A2000F0EE695A3069B0EE449AF0EE649AB0EE45AAF0EE65AAB0EE46CAF0EE66CAB0EE00
:205A400047BAF0EE67BA09F005FE41EC130BB0EE4B7AF0EE6B7AF0EE6C6AB0EE4C6AF0EEF3
:205A6000682AB0EE4A5AF0EE6A5AB0EE494AF0EE694A96ED032AD6ED021A96ED011AD6EDFE
:205A8000000AB0EE480A25AB1FAA1CA93BA805F0A5FD47B11298386012A8416879608168D5
:205AA000B960C068F86094F8FA0001281CD1002086F8240088F8340E1298A86712A8416811
:205AC000E9678168C5F88010C168C5F884101299C5F888104168C5F88C108168C5F890107E
:205AE000C068C5F8940008E098F8340E010004D00A28BCBF401E88F8340E9FED1C0ADDED55
:205B0000160A60EE800A16A8C5ED1B0AD0ED010A60EE800AC5ED1C0AD0ED020A20EE800A1F
:205B200085ED1D0A98F8351E94F8F9206AB10A29B8BF491C0ADB169AC4F888204268C4F8BB
:205B40008C208068C4F8900000E0002188F8351E96F8380080F0020086F8380060B0BDECEA
:205B60000A8BBDE8F081000000000020E12E654291F90030D2ED000A92ED011A00EE103A4F
:205B8000B8EEC00A91F9013020EE200A00EE903AF8EEE00A91F9023000EE810A00EE903A2D
:205BA000F8EEE00A92ED021A00EE810A80ED000A91F90330D2ED000A92ED011A00EE103A32
:205BC000B8EEC00A91F9043020EE200A00EE903AF8EEE00A91F9053000EE810A00EE903AE7
:205BE000F8EEE00A92ED021A00EE810A80ED010A91F90630D2ED000A92ED011A00EE103AEE
:205C0000B8EEC00A91F9073091F9081020EE200A00EE903AF8EEE00A00EE810A00EE901AE0
:205C2000F8EEE00A92ED021A00EE810A80ED020A704700002DE9F041DFF8BC3C4FF45D6535
:205C400003F6C4541D4403F6DC5603274FF0000C04F801CB05F801CB06F801CB04F801CB0F
:205C600005F801CB06F801CB04F801CB05F801CB7F1E06F801CBEBD10478A4F14205182D40
:205C80000D7838BF2034A5F14206182E167838BF2035A6F14207182F477838BF2036A7F16B
:205CA000420CBCF1180F91F801C038BF2037ACF1420EBEF1180F92F801E0807838BF0CF110
:205CC000200CAEF14208B8F1180F38BF0EF1200EA0F1420889789278B8F1180F38BF2030BE
:205CE000A1F14208B8F1180F38BF2031A2F14208B8F1180F38BF2032E4B2642C4FF0FF381E
:205D00001BD0652C0AD06E2C0CD0732C0ED0752C0FD0772C08BF83F8C48D10E0012483F8F4
:205D2000C44D0CE0012483F8C74D08E083F8C78D05E0012483F8CA4D01E083F8CA8DFFB2FB
:205D4000642F1BD0652F0AD06E2F0CD0732F0ED0752F0FD0772F08BF83F8C58D10E001248C
:205D600083F8C54D0CE0012483F8C84D08E083F8C88D05E0012483F8CB4D01E083F8CB8DEC
:205D8000C0B264281BD065280AD06E280CD073280ED075280FD0772808BF83F8C68D10E028
:205DA000012083F8C60D0CE0012083F8C90D08E083F8C98D05E0012083F8CC0D01E083F8A7
:205DC000CC8DEDB2642D1BD0652D0AD06E2D0CD0732D0ED0752D0FD0772D08BF83F8DC8D1E
:205DE00010E0012083F8DC0D0CE0012083F8DF0D08E083F8DF8D05E0012083F8E20D01E09A
:205E000083F8E28D5FFA8CF064281BD065280AD06E280CD073280ED075280FD0772808BF18
:205E200083F8DD8D10E0012083F8DD0D0CE0012083F8E00D08E083F8E08D05E0012083F841
:205E4000E30D01E083F8E38DC9B264291BD065290AD06E290CD073290ED075290FD0772921
:205E600008BF83F8DE8D10E0012083F8DE0D0CE0012083F8E10D08E083F8E18D05E00120B1
:205E800083F8E40D01E083F8E48DF6B2642E1BD0652E0AD06E2E0CD0732E0ED0752E0FD0BE
:205EA000772E08BF83F8D08D10E0012083F8D00D0CE0012083F8D30D08E083F8D38D05E025
:205EC000012083F8D60D01E083F8D68D5FFA8EF064281BD065280AD06E280CD073280ED0E4
:205EE00075280FD0772808BF83F8D18D10E0012083F8D10D0CE0012083F8D40D08E083F8B1
:205F0000D48D05E0012083F8D70D01E083F8D78DD2B2642A20D0652A0BD06E2A0ED0732A7C
:205F200011D0752A13D0772A08BF83F8D28DBDE8F081012083F8D20DBDE8F081012083F879
:205F4000D50DBDE8F08183F8D58DBDE8F081012083F8D80DBDE8F08183F8D88DBDE8F081C9
:205F6000B4600008F0B40FF24C1284B0F0CA6B46103AF0C36B46B3E8E01000F178046B460C
:205F8000A4E8E010F0CAF0C36B46B3E8E01000F18804103AA4E8E010F0CA6B46103AF0C331
:205FA0006B46B3E8E01000F198046B46A4E8E010F0CAF0C36B46B3E8E01000F1A804103A5B
:205FC000A4E8E010F0CA6B46103AF0C36B46B3E8E01000F1B8046B46A4E8E010F0CAF0C35A
:205FE0006B46B3E8E01000F1C804103AA4E8E010F0CA6B46103AF0C36B46B3E8E01000F14D
:020000040800F2
:20600000D8046B46A4E8E010F0CAF0C300F1E803B7EE000AF0C3002280ED0F0A0264426418
:20602000826480ED130A02654265826580ED170A026642668266C26602674267DFF8280D2F
:2060400008604A768A76CA7681ED080A81F8382081F83A20DFF8140D4860DFF8140D886034
:20606000DFF8100DC860DFF8100D08610120087548758875C875087681F824000220087756
:2060800081F83900DFF8F40C8862DFF8F40CC862DFF8F00C0863DFF8F00C486304B0DFF845
:2060A000EC0CC0F8A820C0F8AC20C0F8B020F0BC70470000000000000000000000000000F9
:2060C0000000803F2DE9F043DFF82C980E4681B017460FF628012DED0A8BB0EE408AA2B0A4
:2060E000B1E81C10054602A80FF62001A0E81C10B1E81C1009A80DF11808A0E81C1099F932
:20610000E80D96ED061AD6ED070A96ED080A97F8394001EE900AF8EEE11A99F9E90D61EE35
:20612000819A01EE900AF8EEE11A99F9EA0D41EEA09A01EE900AF8EEE11A99F9EB0D41EEC5
:20614000809A01EE900AF8EEE11A99F9EC0D21EE819A01EE900AF8EEE11A99F9ED0D01EE21
:20616000A09A01EE900AF8EEE11A99F9EE0D01EE809A01EE900AF8EEE11A99F9EF0D21EEDE
:2061800081AA01EE100AB8EEC11A99F9F00D01EE20AA00EE900A4FF46060F8EEE00A09EBB3
:2061A000000100EE80AA06F1240206A800F0FCFD99F9F40D96ED031AD6ED040A96ED050A7C
:2061C00001EE900AF8EEE11A99F9F50D61EE818A01EE900AF8EEE11A99F9F60D41EEA08A0F
:2061E00001EE900AF8EEE11A99F9F70D41EE808A01EE900AF8EEE11A99F9F80D61EE81AAEB
:2062000001EE900AF8EEE11A99F9F90D41EEA0AA01EE900AF8EEE11A99F9FA0D41EE80AAA7
:2062200001EE900AF8EEE11A99F9FB0D21EE811A01EE900AF8EEE11A99F9FC0D01EEA01A02
:2062400000EE900AF8EEE00A00EE801AD8ED010A9DED060A99F8360EF1EE600AB1EE400AED
:20626000B1EE499AF1EE699ACDED060A88ED010AB1EE41BA80B329EE090A09EEA90A0AEED7
:206280000A0A10EE100A09F0E5F941EC100B09F02DFC51EC100B09F0E1FB00EE100ADFED90
:2062A000C00AB4EE600AF1EE10FA48BFB7EE000A89EE009AC9EE809A8AEE00AA2AEEAA0A99
:2062C00008EEA80A0BEE0B0A10EE100A09F0C2F941EC100B09F00AFC97F8390010B9012043
:2062E00087F83900387F97F83910401CC0B290FBF1F201FB1200387700EE101AB8EE400A56
:20630000DDED060A80EE800AD6ED0C0A30EE200A86ED0C0A97F83900D8ED010A00EE100A61
:20632000B8EE400A80EE800AD6ED0D0A30EE200A86ED0D0A97F83900D8ED020A00EE100A28
:20634000B8EE400A80EE800AD6ED0E0A30EE200A86ED0E0A387E60B109A8009006F178032D
:20636000B0EE480A06F16C0206A906F1780005F0EBFA05F11800019006F1E80306F19800C0
:20638000009006F1D80206F1B80109A805F074FB97F8240001280AD1DFF8FC1DB1E80C503B
:2063A0000DA805F11801A0E80C50A1E80C5097F83A8095ED060AB1EE400A85ED060A0DA954
:2063C00095ED070AB1EE400A85ED070A05F1180095ED080AB1EE400A85ED080A05F051FC6D
:2063E000B8F1000F10D10DA88169C5F89410C169C5F8981005F10C01006AC5F89C0005F1B9
:20640000180005F026F8A2E0B8F1010F40F09F800DA8C269C5F894208269C5F8982090ED99
:20642000080AB1EE400A85ED270A40F0908095ED080AD5ED06AAD5ED07BA95ED09CAB1EE01
:2064400040BA2AEEAA0AF0EE000A60EE20CA2BEE0B0AB7EE001A00EE601A31EE6C0A10EE6E
:20646000100A09F0F7F82BEE0C0A0AEEAB0AF0EE000A41EC110B20EE200AB0EE418AF0EE8E
:20648000618A10EE100A09F0E5F841EC100BB0EE481AF0EE681A09F063FA51EC100B81F05C
:2064A000004109F0DBFAB7EE000AE86030EE6C0A6BEEAB0AB0EE001A00EEC10A10EE100AAB
:2064C00009F0C8F82AEE8B0A0BEE8C0AF0EE000A41EC110B20EE200AB0EE418AF0EE618A2C
:2064E00010EE100A09F0B6F841EC100BB0EE481AF0EE681A09F034FA51EC100B81F0004104
:2065000009F0ACFA2AEE8C0A28610BEE6B0AF0EE000A20EE200A10EE100A09F09BF841EC46
:20652000100B09F0EDFB51EC100B81F0004109F095FA95ED030A6861B5EE400AF1EE10FA9F
:2065400005D5DFEDEA0A30EE200A85ED030A9FEDE80AD5ED030A60EE800AC5ED030AB8F14D
:20656000000FD5ED040A60EE800AC5ED040AD5ED050A20EE800A85ED050A13D195ED250A25
:2065800030EE490A85ED280A95ED260A30EE690A85ED290A95ED270A30EE4A0A15E000BF25
:2065A000BE378635B8F1010F11D195ED250A30EE690A85ED280A95ED260A30EE490A85ED15
:2065C000290A95ED270A30EE0A0A85ED2A0A0020B87697F83800810705D4397F91FBF4F25D
:2065E00004FB121139B106F1A80206F1A80109A804F094FF5BE140F0010087F8380096ED6F
:20660000220AD6F88C00C6F89C0086ED260AD6F89000C6F8A000D6F89400C6F8A400DDEDAD
:20662000090A9DED091AF4EE410AF1EE10FA02BFD6ED2A0AF4EE600AF1EE10FA40F04E8198
:20664000D6ED320AF4EE600AF1EE10FA04BFB4EE400AF1EE10FA40F041810DAA06F1A80125
:2066600009A804F05BFF96ED320AD6ED330A96ED341AD6ED351A96ED252A8DED112A11A839
:20668000D6ED242AB1EE623A80ED043A11A9D6ED233AC0ED083A042296ED224AC0ED012A4D
:2066A000F1EE444AC0ED0C4AC0ED094AF1EE634A80ED052AC0ED0D4AC0ED024A80ED064A88
:2066C00080ED0A2A80ED0E3A80ED034AC0ED073AC0ED0B2A80ED0F2A02A800239FED854A0C
:2066E0000360D1ED003A91ED013AD1ED022A91ED032A00EE234A00EE834A01EE224A01EE91
:20670000824A80ED004A1031001D521EE6D102999DED024A9DED0D0A0DA8B1EE444AD0EDC0
:20672000010A90ED021AD0ED031A02AC11A8D4ED022AD4ED013A94ED032A816180ED0C4A38
:2067400080ED094AB1EE623A029980ED043AB1EE634AC0ED083AC0ED012A80ED052A80EDDC
:206760000D4A80ED024A80ED0A2A80ED0E3AC160C0ED073AC0ED0B2A80ED0F2A8DED112A67
:2067800002A811A95FF004029FED5A4A0360D1ED003A91ED013AD1ED022A91ED032A00EE79
:2067A000234A00EE834A01EE224A01EE824A80ED004A1031001D521EE6D19DED020ADDEDFF
:2067C000020A94ED018AD4ED028A94ED039A9FED491A00EE201A08EE081A08EEA81A09EE58
:2067E000091A11EE100A08F035FF41EC100B09F07DF951EC100B09F031F900EE100ADDED2D
:20680000020AC0EE800ACDED020ADDED021A9DED022AF4EE421AC8EE000A88EE801A89EE4D
:20682000000AF1EE10FAC4ED010A84ED021A84ED030A53D10298B067C6ED1F0A86ED201A40
:2068400086ED210A06F1D801D6F8A800C6F8B800D6F8AC00C6F8BC00D6F8B000C6F8C000EE
:20686000D6F8B400C6F8C40097F8390000EE100AB8EE400A06F1C80005F04EF9DFF8180961
:20688000B0E81C100DA91038A1E81C100DA9B1E8185006F1A8020DA9A2E81850B0E81C10BD
:2068A000A1E81C100DA806F1E8015CC85CC197F83A0001280BD1D5ED080AE86995ED060AC8
:2068C00085ED070AB1EE600AA86185ED080A22B00020BDEC0A8B01B0BDE8F08322B04FF095
:2068E000FF30BDEC0A8B01B0BDE8F083560EC940E12E65420000000000000020000000001F
:2069000000000000000000000000803F0000000000000000000000000000803F2DE9F041B2
:20692000DFF8688404462DED0A8B98F9EE0D01EE100AB8EEC11A98F9EF0D0D46E0B0D5ED53
:20694000062A95ED092AD5ED070AD5ED0A1A61EE228A01EE100AB8EEC11A98F9F00D41EE57
:20696000208AB0EE408A01EE100A98F9060E95ED080A03EE100AB8EEC33A98F9070E23EE5E
:20698000029A03EE100AB8EEC33A98F9080EB8EEC11A03EE219A41EE008A03EE100A95ED93
:2069A0000B1A98F9E80DB8EEC33A03EE019A03EE100A98F9E90DB8EEC33A03EE900A23EE2C
:2069C000223AF8EEE33A98F9EA0D03EEA03A03EE900AF8EEE33A98F9EB0D03EE803A03EE52
:2069E000900AF8EEE33A98F9EC0D63EEA22A03EE900AF8EEE33A98F9ED0D43EEA02A00EE51
:206A0000900A98F9000EF8EEE00A40EE802A00EE100A98F9010EB8EEC00A00EE900A20EEE7
:206A2000020AF8EEE00A98F9020E00EEA10A00EE900AF8EEE00A98F9030E00EE810A00EEDF
:206A4000900AF8EEE00A98F9040E60EE820A02EE100AB8EEC22A98F9050E42EE210A01EEC5
:206A6000900AF8EEE11A41EE810AF1EE60AAB1EE40BA98F8360E16461F46F1EE629AB1EE50
:206A800043AA9FEDC50ADFEDC50A9FEDC51A78B329EEA90A0AEE0A0A08EEA80A10EE100AE7
:206AA00008F0D8FD41EC100B09F020F851EC100B08F0D4FF00EE100AC9EE809A8AEE00AA92
:206AC000C8EE808A9FEDB20B09F010F851EC100B08F0C4FF01EE100A9FEDAF0ADFEDAF0AC6
:206AE00080EE010AC0EE810ADFEDAD1A81EE811AF822294696F8380040F0020080F0010055
:206B000086F8380096F8390001EE900AA86FC5F88800F8EE611AE86FC5F88C0021EE888AF1
:206B2000D5F88000C5F89000D5F88400C5F8940019A809F0FDF8CDED1F9A8DED20AACDEDF9
:206B4000218A8DED1C0ACDED1D0A8DED1E1ACDED22AA8DED23BA8DED249A002028636863CC
:206B6000A863DFF8740A119004F1FA00109004F1F9000F9004F1F8000E9016A80D9004F11D
:206B800058000C9004F1EC000B9004F1E8000A9057A8099005F1C800089012A80790307E21
:206BA0000690F07D0590B07D0490707D0390307D029034A8019028A80090706B08F04AFDD6
:206BC00041EC170BD6ED0C6A96ED0B6AD6ED0A2A306AF0EE628AB0EE46AAF0EE66AAB0EEC0
:206BE000479AF0EE679A08F035FD41EC150BB0EE497AF0EE697AF0EE6A6AB0EE4A6AB07E0A
:206C0000B0EE459AF0EE659AB0EE46BAF0EE66BAB0EE47AAF0EE67AA09F0C0F841EC140B03
:206C2000B0EE4A7AF0EE6A7AF0EE6B6AB0EE4B6AB0EE495AF0EE695A3069B0EE449AF0EE55
:206C4000649AB0EE45AAF0EE65AAB0EE46CAF0EE66CAB0EE47BAF0EE67BA08F0FBFC41EC46
:206C6000130BB0EE4B7AF0EE6B7AF0EE6C6AB0EE4C6AF0EE682AB0EE4A5AF0EE6A5AB0EED6
:206C8000494AF0EE694A96ED032AD6ED021A96ED011AD6ED000AB0EE480A25AB1FAA1CA988
:206CA0003BA804F09BFC47B11298386012A8416879608168B960C068F86094F8FA000128BF
:206CC0001BD1002086F8240088F8360E1298A86712A84168E9678168C5F88010C168C5F8BA
:206CE00084101299C5F888104168C5F88C108168C5F89010C068C5F894009FED2A0ADDEDB5
:206D0000160A60EE800A16A8C5ED1B0AD0ED010A60EE800AC5ED1C0AD0ED020A20EE800A0D
:206D200085ED1D0A98F8371E94F8F9206AB10A29B8BF491C0ADB169AC4F888204268C4F8A7
:206D40008C208068C4F8900000E0002188F8371E96F8380080F0020086F8380060B0BDECD6
:206D60000A8BBDE8F08100008195633F21B02A40CFF7133F83C02A3F00002041282C713952
:206D800027A0093A0742B239CDCCCC3D00000020000000E0285CEF3F3333333F0000000089
:206DA000333333BFE12E654291F90030D2ED000A92ED011A00EE103AB8EEC00A91F9013045
:206DC00020EE200A00EE903AF8EEE00A91F9023000EE810A00EE903AF8EEE00A92ED021A9B
:206DE00000EE810A80ED000A91F90330D2ED000A92ED011A00EE103AB8EEC00A91F904301D
:206E000020EE200A00EE903AF8EEE00A91F9053000EE810A00EE903AF8EEE00A92ED021A57
:206E200000EE810A80ED010A91F90630D2ED000A92ED011A00EE103AB8EEC00A91F90730D5
:206E400091F9081020EE200A00EE903AF8EEE00A00EE810A00EE901AF8EEE00A92ED021A54
:206E600000EE810A80ED020A704700002DE9F041DFF868374FF4606603F6E85403F6F4552C
:206E80001E4403274FF0000C04F801CB05F801CB06F801CB04F801CB05F801CB06F801CB65
:206EA00004F801CB05F801CB7F1E06F801CBEBD10478A4F14205182D0D7838BF2034A5F11B
:206EC0004206182E167838BF2035A6F14207182F477838BF2036A7F1420CBCF1180F91F8D4
:206EE00001C038BF2037ACF1420EBEF1180F92F801E0807838BF0CF1200CAEF14208B8F1AB
:206F0000180F38BF0EF1200EA0F1420889789278B8F1180F38BF2030A1F14208B8F1180F7D
:206F200038BF2031A2F14208B8F1180F38BF2032E4B2642C4FF0FF381BD0652C0AD06E2C87
:206F40000CD0732C0ED0752C0FD0772C08BF83F8E88D10E0012483F8E84D0CE0012483F8AD
:206F6000EB4D08E083F8EB8D05E0012483F8EE4D01E083F8EE8DFFB2642F1BD0652F0AD0CA
:206F80006E2F0CD0732F0ED0752F0FD0772F08BF83F8E98D10E0012483F8E94D0CE0012440
:206FA00083F8EC4D08E083F8EC8D05E0012483F8EF4D01E083F8EF8DC0B264281BD0652832
:206FC0000AD06E280CD073280ED075280FD0772808BF83F8EA8D10E0012083F8EA0D0CE0A9
:206FE000012083F8ED0D08E083F8ED8D05E0012083F8F00D01E083F8F08DEDB2642D1BD0AC
:20700000652D0AD06E2D0CD0732D0ED0752D0FD0772D08BF83F8008E10E0012083F8000E80
:207020000CE0012083F8030E08E083F8038E05E0012083F8060E01E083F8068E5FFA8CF069
:2070400064281BD065280AD06E280CD073280ED075280FD0772808BF83F8018E10E001206A
:2070600083F8010E0CE0012083F8040E08E083F8048E05E0012083F8070E01E083F8078E70
:20708000C9B264291BD065290AD06E290CD073290ED075290FD0772908BF83F8028E10E0C9
:2070A000012083F8020E0CE0012083F8050E08E083F8058E05E0012083F8080E01E083F8A0
:2070C000088EF6B2642E1BD0652E0AD06E2E0CD0732E0ED0752E0FD0772E08BF83F8F48DA7
:2070E00010E0012083F8F40D0CE0012083F8F70D08E083F8F78D05E0012083F8FA0D01E027
:2071000083F8FA8D5FFA8EF064281BD065280AD06E280CD073280ED075280FD0772808BFEB
:2071200083F8F58D10E0012083F8F50D0CE0012083F8F80D08E083F8F88D05E0012083F8CE
:20714000FB0D01E083F8FB8DD2B2642A20D0652A0BD06E2A0ED0732A11D0752A13D0772AC0
:2071600008BF83F8F68DBDE8F081012083F8F60DBDE8F081012083F8F90DBDE8F08183F84C
:20718000F98DBDE8F081012083F8FC0DBDE8F08183F8FC8DBDE8F081D8720008F0B40FF287
:2071A000381284B0F0CA6B46103AF0C36B46B3E8E01000F178046B46A4E8E010F0CAF0C3A6
:2071C0006B46B3E8E01000F18804103AA4E8E010F0CA6B46103AF0C36B46B3E8E01000F19B
:2071E00098046B46A4E8E010F0CAF0C36B46B3E8E01000F1A804103AA4E8E010F0CA6B464F
:20720000103AF0C36B46B3E8E01000F1B8046B46A4E8E010F0CAF0C36B46B3E8E01000F1C1
:20722000C804103AA4E8E010F0CA6B46103AF0C36B46B3E8E01000F1D8046B46A4E8E0101E
:20724000F0CAF0C300F1E803B7EE000AF0C3002280ED0F0A02644264826480ED130A0265F8
:207260004265826580ED170A026642668266C26602674267DA4808608A754A768A76CA7637
:2072800081ED080A81F8382081F83A20D5484860D5488860D548C860D54808610120087597
:2072A0004875C875087681F824000220087781F83900D0488862D048C862D0480863D04887
:2072C000486304B0C448C0F8A020C0F8A420C0F8A820F0BC7047000000000000000000006C
:2072E000000000000000803F70B505462DED048BB0EE408AD5ED008AF4EE488AF1EE10FA65
:207300000C462ADA95ED099AB4EE498AF1EE10FA28DAB248D0E9000108F0A0FBB4EE688AB7
:20732000F1EE10FAA4BFB4EE489AF1EE10FA00EE100A3FDB012002210A2213185B0805EB84
:207340008306361F96ED000AB4EE408AF1EE10FAA6BF1846591C1A4609E094ED000ABDECB8
:20736000048B70BD94ED090ABDEC048B70BD9142E3D3411C04EB800205EB800050F8040C39
:2073800052F8042C00EE900A05EB8100001F38EE601AD0ED001A04EB810071EEE00A001F0C
:2073A000C1EE200A00EE102A90ED001A31EE401A00EE810ABDEC048B70BD70B505462DED54
:2073C000048BB0EE408AD5ED008AF4EE488AF1EE10FA0C462ADA95ED0C9AB4EE498AF1EEFB
:2073E00010FA28DA7D48D0E9000108F037FBB4EE688AF1EE10FAA4BFB4EE489AF1EE10FA8B
:2074000000EE100A3FDB012002210D2213185B0805EB8306361F96ED000AB4EE408AF1EEA3
:2074200010FAA6BF1846591C1A4609E094ED000ABDEC048B70BD94ED0C0ABDEC048B70BDD5
:207440009142E3D3411C04EB800205EB800050F8040C52F8042C00EE900A05EB8100001F7B
:2074600038EE601AD0ED001A04EB810071EEE00A001FC1EE200A00EE102A90ED001A31EE06
:20748000401A00EE810ABDEC048B70BD30B5044681B02DED048B94F8CE080028F0EE408A79
:2074A0009FED4C8A66D1012084F8CE08002104F6B800C0ED008AD4E90223002008F05AFA68
:2074C00041EC100B04F6BC0053EC102BC0ED008AD4E9040108F04EFA41EC100B04F6C000F9
:2074E00053EC102BC0ED008AD4E9060108F042FA41EC100B04F6C40053EC102BC0ED008A2C
:20750000D4E9080108F036FA41EC100B04F6C80053EC102BC0ED008AD4E90A0108F02AFADE
:2075200041EC190BD4E9020153EC192B08F044FCC4E9020153EC192BD4E9040108F03CFC5A
:20754000C4E9040153EC192BD4E9060108F034FCC4E9060153EC192BD4E9080108F02CFCED
:20756000C4E9080153EC192BD4E90A0108F024FCC4E90A015FF0040504EB8500D0F8B418DA
:2075800000F6B80009EE101A80ED009A04EBC5006D1ED0E9020108F061FAEDB200EE100A20
:2075A000002D00EE098AE7D104F6B800C0ED008AD4E9020108F052FA00EE100AD4F8B808E4
:2075C00000EE900A00EE208AB0EE480ABDEC048B01B030BD00000000780E002000000020FF
:2075E0008195633F21B02A40CFF7133F83C02A3F00002041282C713927A0093A0742B23937
:20760000CDCCCC3D2DE9F04F81B089462DED108B92462DED050A9846DFF81C1D81B0074651
:207620002DED043BADF5B06DB1E87C50FFA8FF3029300DF1040BA0E87C50B1E87C10A0E890
:207640007C10DFF8F81CB1E87C500DF59E609FED7DBAA0E87C50B1E87C10A0E87C10DFF827
:20766000E01CB1E87C50FFA8C030A0E87C50B1E87C10A0E87C10DFF8CC1CB1E87C500DF55F
:207680009160A0E87C50B1E87C10A0E87C10DFF8B81C7CC9FFA830307CC07CC97CC0DFF8E1
:2076A000AC1C7CC9FFA808307CC07CC97CC0DFF8A01C7CC9F7A87CC07CC9DFF8981C7CC062
:2076C000B1E87C501CA8DFF8901CA0E87C50B1E87C5045A8A0E87C50DDF83816DFF87C4C42
:2076E00000200870DDF83C160870DDF840160870484604F0A8FA04F66C6080ED000A5046B9
:2077000004F0A1FAF0EE40AA99ED000ADDF848568DED110AD9F8040018901290D9F8080082
:2077200017901390D4F86C0E00EE900ADAF800000090C0EE208A9DED000A149080EE2A0A9D
:207740008DED010ADAF804009DED180A009080EE209A9DED000A1590C0EE2A9ACBED019A6C
:20776000DAF808009DED170A009080EE20AA9DED000A169080EE2ACA8BED02CA9DED010A47
:2077800095F8CD0808EE80BA09EE29BA00280AEE0CBA40F04F8185F830002421012085F807
:2077A000CD0885F831004DF804CD0DF58060B7EE008A90ED630B5DF804CB04AE85ED0E0BD3
:2077C000002004907060B060F060B1EE040A05F1400008F01DFC85ED188A85ED148A85ED3B
:2077E000108A302105F1640008F012FC0020C5F89400C5F89800C5F89C0085ED2C8A85ED85
:207800002D8A4FF4A271DFF8640BC5F8AC00DDF82406D0ED000AF5EE400AF1EE10FA05F1DA
:20782000B80011D108F0F4FB05F1B8005FF0030180ED000A80ED0A0A80ED140A7830491E34
:20784000F6D110E00000000008F0E2FB05F1B8005FF0030180ED000A80ED0A0A80ED140A18
:207860007830491EF6D14FF4FE7001220C21284408F0D2FB4FF405702421284408F0C8FBDC
:207880004FF40E7085ED8D8A85ED898A85ED858A2421284408F0BCFB4FF4177085ED968ADC
:2078A00085ED928A85ED8E8A4FF4B471284408F0AFFB0020C5F8C403C5F8C803C5F8CC0382
:2078C000C5F8D003C5F8D403C5F8E003C5F8EC03C5F8F803C5F8D803C5F8E403C5F8F00394
:2078E000C5F8FC03C5F8DC03C5F8E803C5F8F403C5F80004C5F80404C5F80804C5F80C04B8
:20790000C5F81004C5F81404C5F81804C5F81C040DF580614FF08040C5F820040020C5F86B
:207920002404C5F82804C5F82C04C5F83004C5F83404C5F8380405F23C4080ED008AD1E946
:20794000620108F08BF800EE100ADFED490A05F2404020EE200A80ED000A0020C5F84404D7
:2079600005F2484080ED008A0020C5F84C04C5F85004C5F854043220C5F858040020C5F8F6
:207980005C0423A8D9F800102391DAF80010C160D8F800108161D9F804104160DAF80410F6
:2079A0000161D8F80410C161D9F808108160DAF808104161D8F80810016201205FF01E012F
:2079C00005EB800202F25C4224AB032653F804CCC2F800C0C01CD3F800C0C2F804C0D3F866
:2079E00004C0C2F808C00C330C32761EEED1491EE6D1DDF824060068C5F89808DDF8240690
:207A00004068C5F89C08DDF824068068C5F8A008002085F8A408A5F8A608A5F8A8084FF4ED
:207A20007A70A5F8AA08002085F8AD0885F8AE08C5F8B00804AE3868049078687060B8685D
:207A4000B060F868F0604DF804CD0DF5806090ED630B5DF804CB0DF5806185ED0E0BD1E937
:207A6000620107F0FBFF0BEE900A9FED010A01E00AD7A33C05F240402BEE800A80ED000A56
:207A80004FF47870D4F8C02D00EE102AD4F8BC2D00EE902AD4F8B82D01EE102AD4F8B42DF6
:207AA00001EE902AD4F8B02D02EE102A2844032100220260DFEDE12A90ED203A42EE032A2B
:207AC000C0ED002A90ED293A41EE832AC0ED002A90ED323A41EE032AC0ED002A90ED3B3A2E
:207AE00040EE832AC0ED002A90ED443A40EE032AC0ED002A001D491EDBD14FF47B702844DD
:207B000003210260DFEDCD2A90ED203A42EE032AC0ED002A90ED293A41EE832AC0ED002A7E
:207B200090ED323A41EE032AC0ED002A90ED3B3A40EE832AC0ED002A90ED443A40EE032A2F
:207B4000C0ED002A001D491EDBD14FF47E70284403210260DFEDB92A90ED203A42EE032A18
:207B6000C0ED002A90ED293A41EE832AC0ED002A90ED323A41EE032AC0ED002A90ED3B3A8D
:207B800040EE832AC0ED002A90ED443A40EE032AC0ED002A001D491EDBD14FF4787028443F
:207BA00004F051F804F65C606CEE28CA80ED000A4FF47B70284404F046F804F6606080ED1C
:207BC000000A4FF47E70284404F03DF804F66460F0EE6C1A80ED000AD4F85C0EC5F8040441
:207BE000D4F8600EC5F8080405F20C4080ED000A0198C5ED939AC5F8400285ED96CAD5EDBD
:207C0000930A95ED900A20EE8A1A0CEE491A85ED8F1A40EE4A1AC5ED921A20EE090A95EDEE
:207C2000921A21EE011A00EEE80AD5ED8F0A85ED950A00EEA01A00EE001A11EE100A07F062
:207C400009FD41EC100B07F051FF51EC100B07F005FF00EE100AD5ED8F0AD5ED962A95EDD5
:207C6000932A95ED901AC0EE800AC5ED8F0A4FF40E70D5ED920AC0EE800AC5ED920AD5ED31
:207C8000950AD5ED921A80EE800A21EEA23A85ED950A00EE423AD5ED8F0A60EE013A20EE87
:207CA000820A291840EEE23A01EEC10A4FF4057085ED8E3AC5ED913A85ED940A08AA284456
:207CC00003F00CFA9DED080A9DED0CFADDED10FA9DED0D1AF7EE000A30EE208A38EE4F0AC4
:207CE00030EE6F0AB5EE400ADDED0F0AF1EE10FA70EEC10AD8BF9FED510AF5EE400ADDED96
:207D00000A0A9DED0E1AF1EE10FA70EEC10A4CBFDFED4BDADFED4BDAF5EE400ADDED0B0A92
:207D20009DED091AF1EE10FA70EEC10A4CBFDFED44EADFED44EAF5EE400AF1EE10FA4CBF64
:207D40009FED3FDA9FED3FDA10EE100A07F082FC41EC100B07F0CAFE51EC100B07F07EFE7A
:207D600000EE100AF6EE000A20EE200AF8EEED0A60EE20DAB7EE000ADDED080A30EE60EABD
:207D80003EEE0F0A30EE6F0AB5EE400AF1EE10FA04D9B4EE400AF1EE10FA01D09FED270AF1
:207DA00010EE100A07F056FC41EC100B07F09EFE51EC100B07F052FE00EE100AF6EE000AF2
:207DC00020EE200AF8EEEE0A60EE20EA3EEE4F0A30EE2F0AB5EE400AF1EE10FA04D9B4EE04
:207DE000400AF1EE10FA01D09FED140A10EE100A07F030FC41EC100B07F078FE51EC100B8D
:207E000007F02CFE00EE100AF6EE000A20EE200AF8EECD0A20EE20DA38EE0F0A30EE2F0AB8
:207E2000B5EE400AF1EE10FA04D9B4EE400AF1EE10FA09D09FED010A06E000BF00000000A5
:207E4000FFFFFFFF0100000010EE100A07F002FC41EC100B07F04AFE4FF46B7028441D21C9
:207E60000268C26042680261826842610C38491EF6D14DF804CD0DF58060B0EE000AD0ED0D
:207E8000690A2DEE800A5DF804CB80EE200A85ED970A4DF804CDB0EE000AD0ED690A2EEEF1
:207EA000800A5DF804CB80EE200A85ED980A4DF804CDB0EE000AD0ED690A2DEE000A5DF800
:207EC00004CB80EE200A4FF4177085ED990A0023284419A903225B1C90ED030AD0ED000A1E
:207EE00005EB83074FF41C7C30EE801A07EB0C0C4FF0070EDCED001A31EE211ADCED031AF4
:207F000031EE211ADCED061A31EE211ADCED091ABEF1010E31EE211A0CF1300CEAD1F3EEEB
:207F20000E1A81EE211A30EE410A4FF41C7C70EEC10A20EE000A674400EEA00A4FF0070C55
:207F4000D7ED000AD7ED031A97ED062AD7ED092A70EEC10A71EEC11A00EEA00A32EE412A41
:207F600001EEA10A303772EEC12A02EE020ABCF1010C02EEA20AE3D1F3EE0D0A80EE200A1F
:207F800081ED000A091D001D521EA4D1199807F061FB41EC100B07F0A9FD51EC100B07F009
:207FA0005DFD19AF1990B7EE008A786807F052FB41EC100B07F09AFD51EC100B07F04EFD33
:207FC0007860B86807F046FB41EC100B07F08EFD51EC100B07F042FDD7ED010A9DED191A8D
:207FE000DDED191AB86060EEA00A97ED020A41EE210A40EE000A10EE900A07F02BFB41EC70
:020000040800F2
:20800000100B07F073FD51EC100B07F027FDC5F8C4034FF4727029184FF41770284402F059
:2080200021FF4FF47270284403F00DFE4DF804CD0DF58060F0EE40FAF1EE000A90ED660AAB
:20804000D4F85C0E20EE200A5DF804CB00EE900A05F2244080EE800A80ED000AB1EE001A83
:20806000D4F8600E4DF804CD00EE100A0DF58060F1EE001AD0ED670A5DF804CB60EE810AA2
:2080800005F22840C0EE200AC0ED000AD4F8640E4DF804CD00EE900A0DF5806090ED681A35
:2080A0005DF804CB21EE211A05F22C4080EE811A80ED001AB6EE001A05F230402FEE811A82
:2080C00080ED001AD5F8240401EE900AD5F8280402EE100AD5F82C0471EE821A02EE100A96
:2080E00071EE821A31EE811AF5EE001A05F2344021EE211A80ED001AB6EE001A20EE010ABB
:208100009FED8B1A00EE810ADFED8A0A05F2184020EE200A80ED000A2846FFF7B7F90DF541
:20812000806105F21C4000220023B0EE40DA80ED00DAD1E9620107F0B9FA8DED00DA08D8CC
:2081400005F2444080ED008A05F24C4080ED008A7BE00DF580630020D3E96223DFF8701E2D
:2081600007F078FF5AD04DF804CD0DF58060032290ED4A0A5DF804CB4DF804CD2BEE800A9C
:2081800080ED4A0A5DF804CB4DF804CD90ED300A5DF804CB4DF804CD2BEE800A80ED300AA9
:2081A0005DF804CB0DF5A5600DF5986190ED000A2BEE800A80ED000A91ED000A2BEE800ACD
:2081C00081ED000A90ED010A2BEE800A80ED010A91ED010A2BEE800A81ED010A90ED020A56
:2081E0002BEE800A80ED020A91ED020A2BEE800A81ED020A90ED030A2BEE800A80ED030A15
:20820000103091ED030A2BEE800A81ED030A1031521ECBD1D5F81C0400EE100AFFA8FF305D
:208220000DF59E612930FFF7C8F805F244400DF5916180ED000AFFA89DED000AC030FFF727
:20824000BCF805F24C4080ED000AD5F8440495ED2D0AC5F84804D4F86C0E0BEE900A3BEE97
:20826000C00A10EE100A07F0F5F921F0004141EC100B07F0FFFE51EC100B07F033FFDDF853
:208280003816087095ED2D0A3BEEC00A10EE100A07F0E0F921F0004107F0E0FBC4F8680E2E
:2082A00095ED2D0A3BEEC00A10EE100A07F0D2F921F0004107F0D2FB95ED2B0A0DEE100A56
:2082C0003BEE400A10EE100A07F0C4F921F0004107F0C4FB00EE100A05F238403DEE000AAB
:2082E00080ED000A9FED1E0AD5F8380400EE900AF4EE400AF1EE10FA3ADB9FED1A0A70EE8A
:20830000800AB0EE081AB7EE000A05F23C4000EE810ADFED150AB4EE600AF1EE10FA80ED2B
:20832000000A29DBDFF8AC0CC5F83C0424E000BF3333333FCDCC4C3F443A0308783A03089E
:20834000AC3A0308E03A0308143B03083C3B0308643B03088C3B0308A83B030800000020A1
:20836000CDCCCC3DCDCCCCBD0100A0406666663F05F23C4080ED008ABFEE000A3BEE800A13
:2083800010EE100A07F066F921F000410022DFF8483C07F0EFFA41EC110BD5F83C04B0EECC
:2083A00041DAF0EE61DA07F055F941EC100BB0EE4D1AF0EE6D1A07F0E5FE51EC100B07F069
:2083C0004DFBC5F83C0495F83100002800F0988195F83000002840F093814DF804CD0DF528
:2083E0008060F6EE000A90ED6A0A5DF804CBD5F8340420EE200A00EE900AF4EE400AF1EECA
:2084000010FA40F17D810198C5ED159AA864F0EE6C1AD5ED150A95ED120A85ED18CA20EED8
:208420008A1A0CEE491A85ED111A40EE4A1AC5ED141A20EE090A95ED141A21EE011A00EE43
:20844000E80AD5ED110A85ED170A00EEA01A00EE001A11EE100A07F0FDF841EC100B07F0C6
:2084600045FB51EC100B07F0F9FA00EE100AD5ED110AD5ED182A95ED152A95ED121AC0EE74
:20848000800AC5ED110AD5ED140AC0EE800AC5ED140AD5ED170AD5ED141A80EE800A21EEC3
:2084A000A23A85ED170A00EE423A85ED103A60EE013AD5ED110A20EE820A01EEC10AB7EEC8
:2084C000001AD5ED151A85ED160A40EEE23AD5ED100AC5ED133A70EE810A95ED141A70EEE3
:2084E000C10A95ED181A70EEC10AF5EE400A95ED171AF1EE10FA31EE611AD8BFDFEDCC0A38
:20850000B5EE401A95ED121AF1EE10FA31EE400A4CBF9FEDB2DA9FEDB2DAB5EE400A95EDB4
:20852000130A95ED111AF1EE10FA30EE410A4CBFDFEDAADADFEDAADAB5EE400AF1EE10FA9E
:208540004CBF9FEDA6EA9FEDA6EA10EE900A07F081F841EC100B07F0C9FA51EC100B07F07F
:208560007DFA00EE100AF6EE000A20EE200AF8EECD0A20EE200A8DED040AB7EE000AD5ED68
:20858000100A30EE600AD5ED140A30EE200AD5ED180A30EE600AB5EE400AF1EE10FA04D9F2
:2085A000B4EE400AF1EE10FA01D09FEDA10A10EE100A07F04FF841EC100B07F097FA51EC7B
:2085C000100B07F04BFA00EE100AF6EE000A20EE200AF8EEED0A20EE200A86ED010AB7EEDE
:2085E000000AD5ED100A30EE600AD5ED140A30EE600AD5ED180A30EE200AB5EE400AF1EEAD
:2086000010FA04D9B4EE400AF1EE10FA01D09FED880A10EE100A07F01DF841EC100B07F04C
:2086200065FA51EC100B07F019FA00EE100AF6EE000A20EE200AF8EECE0A20EE200A86EDE2
:20864000020AF7EE000A95ED100A30EE200AD5ED140A30EE200AD5ED180A30EE200AB5EE44
:20866000400AF1EE10FA04D9B4EE400AF1EE10FA01D09FED6F0A10EE100A06F0EBFF41EC1A
:20868000100B07F033FA51EC100B07F0E7F900EE100AF6EE000A20EE200A86ED030A9FED32
:2086A000510AF4EE40AAF1EE10FA85ED2BBA09D59FED4D0AF4EE40AAF1EE10FAA8BFC5EDC4
:2086C0002CAA01DA85ED2C8A4FF4A27105F1B80007F09EFC05F1B8005FF00301B1EE040A7E
:2086E00080ED000A80ED0A0A80ED140A7830491EF6D1002085F831000120DDF8401608708F
:20870000FFA85830049996ED010AD6ED020A96ED031ACDF8541480ED010AC0ED020A80EDC5
:20872000031AFFA8683005F1940103220B6803604B6843608B6883600C310C30521EF5D17C
:208740004DF804CD0DF58060D0ED161AF4EE611A5DF804CBF1EE10FA3AD101200DF58B61B0
:20876000D1ED001AF4EE611AF1EE10FA02BFD1ED011AF4EE611AF1EE10FA29D1D1ED021A27
:20878000F4EE611AF1EE10FA02BFD1ED031AF4EE611AF1EE10FA1BD1001D10310D28DFDB78
:2087A000DDED041AF5EE401AF1EE10FA04BFB5EE400AF1EE10FA40F06481F5EE400AF1EEF1
:2087C00010FA04BFB5EE401AF1EE10FA40F05981002005F14001B0EE480A11E0FFFFFFFFA8
:2087E000010000009A99993FCECC4C3F18B1042818BF082802D1B0EE480A01E09FED0C0A06
:20880000401C18BF042881ED000A04D0082818BF9FED070A01D1B0EE480A401C18BF0428E8
:2088200081ED010A07D0082818BF9FED010A01E00000000001D1B0EE480A81ED020A401CD1
:208840000C310928D2DB95ED100A95ED151AF7EE000A30EE200AD5ED140A30EE600AD5ED4F
:20886000180A30EE600AB5EE400AD5ED170AF1EE10FA70EEC10AD8BF9FEDE20AF5EE400A30
:20888000D5ED120A95ED161AF1EE10FA70EEC10A4CBF9FEDDDDA9FEDDDDAF5EE400AD5EDB6
:2088A000130A95ED111AF1EE10FA70EEC10A4CBFDFEDD5DADFEDD5DAF5EE400AF1EE10FAC5
:2088C0004CBF9FEDD1EA9FEDD1EA10EE100A06F0C1FE41EC100B07F009F951EC100B07F0A2
:2088E000BDF800EE100AF6EE000A20EE200AF8EECD0A20EE200A8DED040AB7EE000AD5EDA7
:20890000100A30EE600AD5ED140A30EE200AD5ED180A30EE600AB5EE400AF1EE10FA04D96E
:20892000B4EE400AF1EE10FA01D09FEDB60A10EE100A06F08FFE41EC100B07F0D7F851EC5F
:20894000100B07F08BF800EE100AF6EE000A20EE200AF8EEED0A20EE200A86ED010AB7EE1C
:20896000000AD5ED100A30EE600AD5ED140A30EE600AD5ED180A30EE200AB5EE400AF1EE29
:2089800010FA04D9B4EE400AF1EE10FA01D09FED9D0A10EE100A06F05DFE41EC100B07F06F
:2089A000A5F851EC100B07F059F800EE100AF6EE000A20EE200AF8EECE0A20EE200A86EDE3
:2089C000020AF7EE000A95ED100A30EE200AD5ED140A30EE200AD5ED180A30EE200AB5EEC1
:2089E000400AF1EE10FA04D9B4EE400AF1EE10FA01D09FED840A10EE100A06F02BFE41EC43
:208A0000100B07F073F851EC100B07F027F800EE100AF6EE000A20EE200A86ED030A00209D
:208A2000C5F89400C5F89800C5F89C004FF4A271DDF824060068C5F8A000B1EE040ADDF89B
:208A400024064068C5F8A400DDF824068068C5F8A80085ED2C8A85ED2D8ADFF8BC0BC5F8EB
:208A6000AC0005F1B80007F0D3FA05F1B800032180ED000A80ED0A0A80ED140A7830491E74
:208A8000F6D10DF580630020D3E96023002107F0E1FA00F07D814DF804CD0DF58060F0EE14
:208AA000000A90ED6A0A5DF804CBD5F8340420EE200A00EE900AF4EE400AF1EE10FA40F18C
:208AC00067810198C5ED159AA86485ED18CAD5ED150A95ED120A20EE8A1A0CEE491A85ED54
:208AE000111A40EE4ACAC5ED14CA20EE090A95ED141A21EE011A00EEE80AD5ED110A85ED4F
:208B0000170A00EEA01A00EE001A11EE100A06F0A1FD41EC100B06F0E9FF51EC100B06F063
:208B20009DFF00EE100AD5ED110AD5ED182A95ED152A95ED121AC0EE800AC5ED110AD5ED7A
:208B4000140AC0EE800AC5ED140AD5ED170AD5ED141A80EE800A21EEA23A85ED170A00EEB8
:208B6000423A85ED103A60EE013AD5ED110A20EE820A01EEC10AB7EE001AD5ED151A85EDE1
:208B8000160A40EEE23AD5ED100AC5ED133A70EE810A95ED141A70EEC10A95ED181A70EEBC
:208BA000C10AF5EE400A95ED171AF1EE10FA31EE611AD8BFDFED130AB5EE401A95ED121A5C
:208BC000F1EE10FA31EE400A4CBFDFED0F8ADFED0F8AB5EE400A95ED130A95ED111AF1EE56
:208BE00010FA30EE410A4CBF9FED079A9FED079AB5EE400AF1EE10FA4CBFDFED039ADFED87
:208C0000039A05E000000000FFFFFFFF0100000010EE900A06F01EFD41EC100B06F066FF89
:208C200051EC100B06F01AFF00EE100AF6EE000A20EE200AF8EEE80A20EE200A8DED040A07
:208C4000B7EE000AD5ED100A30EE600AD5ED140A30EE200AD5ED180A30EE600AB5EE400A80
:208C6000F1EE10FA04D9B4EE400AF1EE10FA01D09FEDD60A10EE100A06F0ECFC41EC100BDE
:208C800006F034FF51EC100B06F0E8FE00EE100AF6EE000A20EE200AF8EEC90A20EE200A58
:208CA00086ED010AB7EE000AD5ED100A30EE600AD5ED140A30EE600AD5ED180A30EE200A8F
:208CC000B5EE400AF1EE10FA04D9B4EE400AF1EE10FA01D09FEDBD0A10EE100A06F0BAFC24
:208CE00041EC100B06F002FF51EC100B06F0B6FE00EE100AF6EE000A20EE200AF8EEE90A2C
:208D000020EE200A86ED020AF7EE000A95ED100A30EE200AD5ED140A30EE200AD5ED180ABD
:208D200030EE200AB5EE400AF1EE10FA04D9B4EE400AF1EE10FA01D09FEDA40A10EE100A40
:208D400006F088FC41EC100B06F0D0FE51EC100B06F084FE00EE100AF6EE000ADDF840169C
:208D600020EE200A86ED030A0120087085ED2BBAC5ED2DBA05F1B8000321002202604260BA
:208D800082602430491EF9D1C5F8A821C5F8F8210020C5F89400C5F89800C5F89C009DED67
:208DA000040ADDED040AD6ED018A96ED029AD6ED039A9DED041A20EE200A20EEA84A60EED2
:208DC000890A21EE291A68EEA81A28EE892A68EEA92A29EE093A69EE294A69EEA93A2846D8
:208DE000092100220264001D491EFBD130EE615A35EE435A35EE235A85ED105A34EE245ABC
:208E000034EE644AF0EE004A24EE244A85ED114A31EEC04AB1EE400A30EE610AF0EE005A3A
:208E200034EE434A30EE030A25EE255A34EE234A30EE230A85ED135A85ED144A85ED180AA9
:208E400030EEE25A70EEA20AF0EE002A60EEA20AC5ED120A72EE410A32EE014AB0EE001A10
:208E600060EE810AC5ED150AF7EE000A95ED2B0A25EE255A24EE244A40EE400A85ED165A36
:208E800085ED174A10EE900A06F0E4FB41EC100B06F02CFE51EC100B06F0E0FD00EE100AF7
:208EA0004FF40270D5ED2B0A284405F1400103229FED46AA002303609FED441AD1ED001A7A
:208EC00001EE801A80ED001AD1ED011A01EE8A1A80ED001AD1ED021A01EEA01A80ED001A85
:208EE0000C31001D521EE6D19DED110AD5ED820A30EE600A8DED010A9DED120AD5ED830AFC
:208F0000019830EE600A8BED010ADDED130A95ED841A70EEC10ACBED020A85ED1A0AC5ED71
:208F20001B0A686601A894F9307E00EE107A94F9317E00EE907A94F9327E01EE107A14A93B
:208F400005F140025FF00303B8EEC00AF8EEE00AB8EEC11AD2ED002A92ED012AD2ED021A55
:208F60009FED1A3A00EE223A00EE823A01EE213AD1ED001A71EEC31AC0ED001A0C32091D94
:208F8000001D5B1EE6D1019895ED2C0A2867DFED130ADBF804006867B4EE600ADBF808002E
:208FA000A867F1EE10FA85ED22BAC5ED23AAC5ED24BA17D5DFED0A0AB4EE600AF1EE10FA9B
:208FC00010DBD5ED230A30EEC00A11E0000000000000F03F0000A0400000E0BF9A99993F25
:208FE000CECC4C3F95ED230AFFEE000A30EE200A10EE100A06F02EFB21F0004106F02EFDB4
:20900000C5F81004FFA9D4F8600E00EE100AD5F8100400EE900A05F2144030EE200A80ED2C
:20902000000AFFA808313030FEF75EF9D5F81404F0EE40AA00EE100AFFA8F7A93030FEF749
:2090400053F9D5F83004B0EE40BA0CEE100A9DED1C0AB4EE4C0AF1EE10FA2CDADDED22CACA
:20906000B4EE6CCAF1EE10FA28DAD4E9000106F0F5FC9DED1C0AB4EE40CAF1EE10FAA4BFE0
:20908000F4EE4CCAF1EE10FA0BEE900A40DB01200221072213185B081CAF07EB83073F1FA1
:2090A00097ED000AB4EE40CAF1EE10FAA6BF1846591C1A4605E0DDED45BA29E0DDED4BBA6F
:2090C00026E09142E6D345AA02EB8002411C52F8042C0BEE902A1CAA02EB800050F8040C8B
:2090E00000EE100A1CA800EB8100001F7CEE400A90ED001A45A800EB810031EE400A001FED
:2091000080EE800AD0ED000A70EEEB0A40EE20BA0020C5F8D403C5F8D803C5F8DC0300212C
:2091200000EBC00205EB8202D2F8783400EE103A00EB400305EB8303401CD3ED970A30EEE1
:20914000600AF3EE0E0A80EE200AD5EDF50A30EE200A85EDF50A05EB8103D2F87C74D3EDAC
:20916000980A00EE107A30EE600AF3EE0E0A80EE200AD5EDF60A30EE200A85EDF60AC91C5B
:20918000D2F88024D3ED990A00EE102A30EE600AF3EE0E0A80EE200AD5EDF70A30EE200AB2
:2091A0001E2885EDF70ABBDB4FF4056028441D21032203684362436883628368C3620C30FD
:2091C000521EF6D14838491EF2D1D9F80000C5F86004DAF80000C5F86C04D8F80000C5F830
:2091E0007804D9F80400C5F86404DAF80400C5F87004D8F80400C5F87C04D9F80800C5F84B
:2092000068040DF1F009DAF80800C5F87404D8F80800C5F8800405F6740002F014FD4FF40E
:209220000860F0EE40DA284402F00DFD04F66C6080ED000AD5F8800800EE900AD5F8740803
:2092400080EE80CA00EE900AD5F8840801EE100AD5F87808C1EE00CA01EE100AD5F8880840
:2092600001EE900AD5F87C0881EE80DA00EE100A80EE2D0A81EE2D1A6CEE801A4DEE411A5E
:20928000CDED011AC0EEAD0A6DEE20DA2CEE01EA9DED011A4CEE40DA2DEEAD0A0CEEE0EAAB
:2092A000DDED010ACBED01DA00EE810A0EEE0E0A8BED02EA10EE100A06F0CCF941EC100B3A
:2092C00006F014FC51EC100B06F0C8FB00EE100ADDED010A89ED02CAC0EE800ACDED010A5B
:2092E0000198DDED011AC9F80400CDEE800A20EE8D1A4FF40E708EEE000A00EE6C1A8DEDFC
:209300003C1A20EE0C1A01EECD1A89ED031A29189DED011ACBED010A21EE2C1A00EECC1A88
:209320008BED020AC9ED040AC9ED05CA89ED061A89ED070A89ED08DA08AA3CA801F0CEFE98
:209340009DED080A9DED0CCA9DED10FA9DED0D1AF7EE000A70EE20CA3CEECC0A30EE4F0A1E
:20936000B5EE400ADDED0F0AF1EE10FA70EEC10AD8BF9FEDA50AF5EE400ADDED0A0A9DEDA4
:209380000E1AF1EE10FA70EEC10A4CBFDFED9FDADFED9FDAF5EE400ADDED0B0A9DED091A45
:2093A000F1EE10FA70EEC10A4CBFDFED98EADFED98EAF5EE400AF1EE10FA4CBF9FED93DADA
:2093C0009FED93DA10EE100A06F044F941EC100B06F08CFB51EC100B06F040FB00EE100AF3
:2093E000F6EE000A20EE200AF8EEED0A60EE20DAB7EE000ADDED080A30EE60EA3EEE0C0AED
:2094000030EE4F0AB5EE400AF1EE10FA04D9B4EE400AF1EE10FA01D09FED7B0A10EE100A53
:2094200006F018F941EC100B06F060FB51EC100B06F014FB00EE100AF6EE000A20EE200A01
:20944000F8EEEE0A60EE20EA3EEE4C0A30EE0F0AB5EE400AF1EE10FA04D9B4EE400AF1EE9F
:2094600010FA01D09FED680A10EE100A06F0F2F841EC100B06F03AFB51EC100B06F0EEFA72
:2094800000EE100AF6EE000A20EE200AF8EECD0A20EE20DA3CEE8C0A30EE0F0AB5EE400AF5
:2094A000F1EE10FA04D9B4EE400AF1EE10FA01D09FED550A10EE100A06F0CCF841EC100B3B
:2094C00006F014FB9FED50CADFED4FCA9FED4EEA5FF0000000EBC00105EB8101F3EE0E0AD2
:2094E000D1F8782400EE102A80EE200AD1F87C24D1F8801430EE0CCA00EE102A80EE200ACD
:2095000070EE2CCA00EE101A401C80EE200A1E2830EE0EEADEDBD4F85C0E4DF804CD00EE9C
:20952000100A0DF58060D0ED660AB4EE600A5DF804CBF1EE10FA40D5D4F8600E4DF804CD84
:2095400000EE900A0DF5806090ED671AF4EE410A5DF804CBF1EE10FA2FD5D4F8640E4DF8E2
:2095600004CD00EE900A0DF5806090ED681AF4EE410A5DF804CBF1EE10FA1ED598ED001AE5
:20958000DFED240AB0EEC11AB4EE601AF1EE10FA41BF98ED011AB0EEC11AB4EE601AF1EE3F
:2095A00010FA0AD598ED021AB0EEC11AB4EE601AF1EE10FA48BF012100D40021DDF81C068E
:2095C000DDF81076020029D1002085F8020285F8030285F8040295ED291AD5F8A00095EDDA
:2095E0002A0AE86785ED201A0020C5F85C0485ED210A95F83000002800F0B984002085F8B3
:20960000300000F0B4BC00BF00000000FFFFFFFF01000000CDCC4C3E6666663F012818BF6A
:2096200003283FD100293DD0D5F850040A2840F07A84012085F8020285F8030285F8040291
:20964000D8F80000E867D8F80400C5F88000D8F80800C5F884000120DDF83C160870D5F834
:209660005C14481C012903DB0128B8BF6FF00040C5F85C0495F8300068B1E86FC5F8A00028
:20968000D5F88000C5F8A400D5F88400C5F8A800002085F83000D5F85C041E2840F067840B
:2096A00000F034BC022840F00282012085F8020285F8030285F80402B4EE001AD5F8400478
:2096C00000EE900A60EE810A9DED001AF4EE410AF1EE10FA73DB95F8A40897ED060A00282C
:2096E00010D1F0EE080A80EE200A87ED060A97ED070A80EE200A87ED070A97ED080A80EEC7
:20970000200A0FE0F6EE000A20EE200A87ED060A97ED070A20EE200A87ED070A97ED080A9E
:2097200020EE200A87ED080AB5F8A608401CB0F5803F28BF4FF6FF70A5F8A608B5F8A6080F
:20974000322816DB95F8A40898B997ED060ADFEDCD0A80EE200A87ED060A97ED070A80EEDE
:20976000200A87ED070A97ED080A80EE200A87ED080AB5F8A608462804BF95F8A418002988
:2097800006D185ED4C8A85ED568A85ED608A97E0642804BF95F8A408002840F09180012073
:2097A00085F8A408D5F8A000C5F89808D5F8A400C5F89C08D5F8A800C5F8A00880E04DF865
:2097C00004CD0DF58060D0ED660AB4EE600A5DF804CBF1EE10FA5ED5D4F8600E4DF804CD0D
:2097E00000EE900A0DF5806090ED671AF4EE410A5DF804CBF1EE10FA4DD5D4F8640E4DF822
:2098000004CD01EE100A0DF58060D0ED681AB4EE611AF1EE10FA5DF804CB42BFF6EE001A24
:20982000F4EE61FAF1EE10FA35D54DF804CDD0ED661A5DF804CB4DF804CD80EE210AD0ED15
:20984000671A5DF804CBC0EEA10A4DF804CD30EE200AD0ED680AC1EE200A30EE200AF7EE77
:20986000080AB4EE600A5DF804CBF1EE10FA12D597ED060AF6EE000A20EE200A87ED060A98
:2098800097ED070A20EE200A87ED070A97ED080A20EE200A0FE097ED060A20EE2B0A87ED6E
:2098A000060A97ED070A20EE2B0A87ED070A97ED080A20EE2B0A87ED080A0020A5F8A60871
:2098C00095F8A40800285FD195F8300010B3B0EE000AF4EE40FAF1EE10FA41BF95EDF10A4D
:2098E000F1EE000AB4EE600AF1EE10FA12D595EDF61A95EDF70AD5F8D40385ED201A85EDCC
:20990000210AE8670120DDF83C160870002085F830002CE3D5F854141E292BD1B5F8A6085E
:2099200028280BDBD8F80000E867D8F80400C5F88000D8F80800C5F884000AE0D5F8D4031A
:2099400095EDF61A95EDF70AE86785ED201A85ED210A0120DDF83C160870C5F85C04B5F8D0
:20996000A808401CB0F5803F28BF4FF6FF70A5F8A808FCE2481C012903DB0128B8BF6FF046
:209980000040C5F85404EFE2B0EE000A2DEE800A8DED010AB0EE000A2EEE800A8BED010AFE
:2099A00020EE000A9DED011ADDED011AF0EE000A01EE210A6DEE200A00EEA00ACBED020A22
:2099C00010EE100A05F046FE41EC100B06F08EF851EC100B06F042F800EE100ADFED2A0AE2
:2099E000B4EE600AF1EE10FA57D50DF580630020D3E96023002106F02DFB18BFC5F85004DB
:209A0000D5F85004322841D197ED060AF1EE040A80EE200A87ED060A012085F8020297EDF6
:209A2000070A80EE200A87ED070A85F8030297ED080A80EE200A87ED080A85F80402D5F872
:209A40005C04B0F57A7F0BD1D5F8A000C5F89808D5F8A400C5F89C08D5F8A800C5F8A008B6
:209A6000D5F85C14481C012903DB0128B8BF6FF00040C5F85C0485ED28CAC5ED29CA85ED66
:209A80002AEA74E25555D53F0BD7A33B85F8021285F8031285F804124CE20020C5F85004C9
:209AA00085F8020285F8030285F804025CE2042840F04C8294F8380E052829DA00EB400289
:209AC00004EB8201DAF80020C1F8482B401CDAF80420C1F84C2BDAF80820C1F8502BD8F876
:209AE0000020C1F8842BD8F80420C1F8882BD8F80820C1F88C2B84F8380E0020DDF83C160D
:209B000008700DF5B56DBDEC108B01B0BDE8F08FD4F8540B0EEE900A04F648309FEDC4EA23
:209B2000C0ED00EA9FEDC30AD4F8580B01EE100A04F64C306EEE8EEA80ED001ADFEDBEFAA8
:209B4000D4F85C0B01EE900A04F65030DFEDBB0AC0ED001A21EE0E1AD4F8900B02EE100ACF
:209B600004F6843080ED002AD4F8940B02EE900A04F68830C0ED002AD4F8980B03EE100AA8
:209B800004F68C3080ED003AD4F8600B0FEE100A04F654304FEE00EA80ED00FAD4F8640BD3
:209BA000C4F8580BD4F8680BC4F85C0BD4F89C0BC4F8900BD4F8A00B03EE900A04F694309A
:209BC000C0ED003AD4F8A40B04EE100A04F6983080ED004AD4F86C0BC4F8600BD4F8700BED
:209BE000C4F8640BD4F8740BC4F8680BD4F8A80BC4F89C0BD4F8AC0B04EE900A04F6A03005
:209C0000C0ED004AD4F8B00B05EE100A04F6A43080ED005AD4F8780BC4F86C0BD4F87C0B4F
:209C2000C4F8700BD4F8800B05EE900A04F67430C0ED005AD4F8B40B06EE100A04F6A830F9
:209C400080ED006AD4F8B80B06EE900A04F6AC30C0ED006AD4F8BC0B07EE100A04F6B030A7
:209C600080ED007A04F67830DAED007AC0ED007A04F67C30DAED01BAC0ED00BA04F68030BA
:209C80009AED02CA80ED00CA04F6B430D8ED00CAC0ED00CA04F6B83098ED01DA80ED00DACD
:209CA00004F6BC30D8ED02DAC0ED00DAD4F8600B0FEE100AD4F86C0B4FEE0AEA0FEE100ABD
:209CC0004FEE2FEA04F60C6047EEA0EAC0ED00EADFED59EAD4F8580B07EE900AD4F8640B6A
:209CE00007EE801A07EE900AD4F8700B07EE8A1A07EE900A07EEAE1A04F610600BEEA01AFD
:209D000080ED001A21EE8E1AD4F85C0B01EE900AD4F8680B01EE801A01EE900A01EE8A1A65
:209D2000DFED451A05EEA11A04F614600CEE201A80ED001A22EE0E1AD4F8900B01EE900AF9
:209D4000D4F89C0B01EE801A01EE900A01EE8A1ADFED391A06EE211A04F618600CEEA01A77
:209D600080ED001A22EE8E1A03EE801A04EE8A1A06EEA11A04F61C600DEE201A80ED001AA2
:209D800023EE0E1A04EE001A05EE0A1A9FED2A0A07EE001A04F620600DEEA01A80ED001AE2
:209DA00004F60C6001F04FFFB0EE40AA04F6186001F049FF4DF804CD0DF58060D0ED670AA5
:209DC000B4EE60AA5DF804CBF1EE10FA40F1CF804DF804CDD0ED680AB4EE600A5DF804CBD5
:209DE000F1EE10FA40F1C380D8F8000005F032FC21F000410022DFF81C3C05F057FC80F0B8
:209E0000B680D8F8040005F025FC21F000410022DFF8003C05F04AFC80F0A980D8F80800EF
:209E200005F018FC21F000410022DFF8E83B07E0CDCC4CBECDCCCCBDCDCCCC3DCDCC4C3E3A
:209E400005F034FC80F09380DAF8000005F002FC21F000414FF06632DFF8BC3B05F026FC87
:209E600080F08580DAF8040005F0F4FB21F000414FF06632DFF8A03B05F018FC77D2DAF8B4
:209E8000080005F0E7FB21F000414FF06632DFF8883B05F00BFC6AD2D5F850040A2842D182
:209EA000012085F8020285F8030285F80402D8F80000E867D8F80400C5F88000D8F80800F3
:209EC000C5F884000120DDF83C160870D5F85C14481C012903DB0128B8BF6FF00040C5F8DC
:209EE0005C0495F8300068B1E86F95ED201A95ED210AC5F8A00085ED291A002085ED2A0A94
:209F000085F83000D5F85C041E2830D1D5F8A000C5F89808D5F8A400C5F89C08D5F8A8000F
:209F2000C5F8A00823E0002085F8020285F8030285F80402D5F85014481C012903DB01284D
:209F4000B8BF6FF00040C5F850040DE00020C5F8500495ED291AD5F8A00095ED2A0AE86785
:209F600085ED201A85ED210A0020C5F85C049FEDCA0AB4EE40BAF1EE10FA07DB002085F8F7
:209F8000020285F8030285F8040213E0D5F85804322811DA002085F8020285F8030285F8B7
:209FA0000402D5F85814481C012903DB0128B8BF6FF00040C5F8580497ED060A20EE0B0AE7
:209FC00087ED060AF0EE000A97ED070A20EE0B0A87ED070A97ED080A20EE0B0A87ED080A99
:209FE000B7EE000A3AEE800A80EE800ADFEDAB0AB4EE600AF1EE10FAD5F8440448BFB0EED8
:020000040800F2
:20A00000600AD7ED000A01EE100AD5F83C0460EE810A01EE100A60EE810AC7ED000AD5F8AC
:20A020004404D7ED010A01EE100AD5F83C0460EE810A01EE100A60EE810AC7ED010AD5F8AC
:20A040004404D7ED020A01EE100AD5F83C0460EE810A01EE100A60EE810AC7ED020AD5F88A
:20A060004C04D7ED030A01EE100A60EE810AC7ED030AD5F84C04D7ED040A01EE100A60EED6
:20A08000810AC7ED040AD5F84C04D7ED050A01EE100A60EE810AC7ED050AB0EE001AD7ED62
:20A0A000090A60EE810A60EEAA0AC7ED090ADDF81416D1ED060A60EE800AC1ED060AD7EDC4
:20A0C0000A0A60EE810A60EEAA0AC7ED0A0AD1ED070A60EE800AC1ED070AD5F84804D7ED86
:20A0E0000B0A01EE100A60EE810AC7ED0B0ADDF81806020033D0D7ED030A60EEAA0AC7ED21
:20A10000030AB0EE001AD1ED000A60EE800AC1ED000AD7ED040A60EEAA0AC7ED040AD1EDCE
:20A12000010A60EE800AC1ED010AD7ED050A60EEAA0AC7ED050AD1ED020A60EE800AC1ED9B
:20A14000020AD7ED0A0A60EE810A60EEAA0AC7ED0A0AD1ED070A20EE800A81ED070A05F19C
:20A16000B80205F1B8034FF0030C00BF91ED000AD3ED000A40EE000AC2ED000A91ED010A9B
:20A18000D3ED0A0A40EE000AC2ED0A0A91ED020AD3ED140A40EE000AC2ED140A783378322E
:20A1A0000C31BCF1010CE1D100213C919DED130A1299159AC9F81810B1EE400A1399C9F8C8
:20A1C000041089ED030A0021C9F810109DED110A1199C9F81410B1EE400A89ED070A002121
:20A1E0009DED120AC9F82010B1EE400AEE9189ED020AEEA99DED160A8A61B1EE400A169A19
:20A200004A6081ED030A00220A619DED140A149A4A61B1EE400A81ED070A00229DED150A58
:20A220000A62B1EE400A81ED020A0028DDF82016097885F8FC11DDF82016097885F8FD11FA
:20A24000DDF82016097885F8FE11DDF82016497885F8FF11DDF82016497885F80012DDF85D
:20A260002016497885F801121EBFDDF82006407800281CD0D5F8140400EE100ADFEDC90A27
:20A28000B4EE600AF1EE10FA0ADB85F8FF2185F8002285F801220AE0000048420AD7233C54
:20A2A000012085F8FF0185F8000285F80102D5F84004DDED000A00EE100AB4EE600AF1EE29
:20A2C00010FA12DB0DF580610023D1E9620105F063FF0AD285F8FC2185F8FD2185F8FE2160
:20A2E00085F8052285F8072204E0012085F8050285F807029FEDACBA95ED240AB4EE4B0A6C
:20A30000F1EE10FA06DADFEDA90AB4EE600AF1EE10FA09D585F8FC2185F8FD2185F8FE2151
:20A3200085F8052285F80722FFEE000A30EE200AD7ED00BA10EE100A05F08CF921F0004132
:20A3400041EC110BB0EE41AAF0EE61AA1BEE900A05F080F941EC100BB0EE4A1AF0EE6A1A85
:20A3600005F010FF51EC100B05F078FB00EE100A87ED000A87ED010A87ED020ADFED8C0A32
:20A3800095ED230AB4EE600AF1EE10FA06DADFED890AB4EE600AF1EE10FA0BD5002085F868
:20A3A000FF0185F8000285F8010285F8050285F8060241E0FFEE000AB86A70EE20BA05F02E
:20A3C00049F941EC110BB0EE41AAF0EE61AA1BEE900A05F03FF921F0004141EC100BB0EE78
:20A3E0004A1AF0EE6A1A05F0CDFE51EC100B05F035FBD7ED030A2BEEAB0A20EEA01AB4EE51
:20A40000401AF1EE10FAB86216D59FED661AB4EE410AF1EE10FA0FDB60EE800AC7ED030A8F
:20A42000D7ED040A60EE800AC7ED040AD7ED050A20EE800A87ED050ADDF84406002800F08B
:20A44000EE80D4F8680E00EE100ADFED5B0AB4EE600AF1EE10FA2ADB0020B0EE001AF0EE63
:20A46000000A85F8FC0185F8FD0185F8FE0140EE010A97ED091A20EE811A87ED091AB4EE9F
:20A480004B0A97ED0B1A60EE810AC7ED0B0AF1EE10FAA4BF85F8050285F8070295F8AE0883
:20A4A0000F2880F2BC80401D85F8AE08B7E095F8AE0880B1002085F8FC0185F8FD0185F88A
:20A4C000FE0185F8050285F8070295F8AE08401E85F8AE08A3E0D5F8B088B8F1000F0DD082
:20A4E000D5F8180400EE100ADFED340AB4EE600AF1EE10FAA8BFA8F1010062DADDF89805BD
:20A5000005F0A8F89FED25AB53EC1A2B05F0E6F88246D4F8600E8B4605F09CF852465B465E
:20A5200005F0C4F87BD2DDF89C0505F093F853EC1A2B05F0D3F88246D4F8640E8B4605F017
:20A5400089F852465B4605F0B1F868D2D4F85C0E05F080F80446DDF894058B4605F07AF8D6
:20A5600000224FF0804305F0B9F822465B4605F09DF829D2002085F8FC0185F8FD0185F8F1
:20A58000FE0185F8050285F8070295F8AD080F2816DAC01C85F8AD0841E000BF000000005B
:20A5A0000000F83F0100803F01004040CDCC4C3E01000040CDCCCC3E0100003F9A99993ED2
:20A5C0006420C5F8B0082AE095F8AD08010003D0401E85F8AD0802E0B8F1000F0BD000203D
:20A5E00085F8FC0185F8FD0185F8FE0185F8050285F8070213E097ED000AF1EE000A20EE68
:20A60000200A87ED000A97ED010A20EE200A87ED010A97ED020A20EE200A87ED020A4FF4C1
:20A62000FE7005EB000805A8002400900DF56E790DF1F00A05F1640B08A8032100220260B5
:20A64000426082600C30491EF9D1032C14DA9AED000AF0EE000A20EE200A8DED080A9AED28
:20A66000030A20EE200A8DED090A9AED060A20EE200A8DED0A0A1BE0062C16DAA9F10C00E8
:20A68000F0EE000A90ED000A20EE200A8DED080A99ED000A20EE200A8DED090A99ED030A9F
:20A6A00020EE200A8DED0A0A02E0009880ED008A98F80000002800F03D8223A803210260AB
:20A6C000426082600C30491EF9D105F1B80323A85FF009014FF0000C0DF1200293ED001AAF
:20A6E00090ED000AB5EE401AF1EE10FAF0EE400A1EBFD2ED001AF5EE401AF1EE10FA1CBF0E
:20A7000001EE210AF0EE400AC0ED000A0CF1010C93ED091A90ED000AB5EE401AF1EE10FA26
:20A720001EBFD2ED011AF5EE401AF1EE10FA1CBF01EE210AF0EE400AC0ED000A0CF1010C5E
:20A7400093ED121A90ED000AB5EE401AF1EE10FA1EBFD2ED021AF5EE401AF1EE10FA0CF105
:20A76000010C1CBF01EE210AF0EE400A6C330C32BCF1090FC0ED000AB0DB001D491EA3F5AF
:20A78000A073A7D19FEDA20A002008A90DF18C02D1ED000AF5EE400AF1EE10FA1FBF92ED5E
:20A7A000001AB5EE401AF1EE10FA00EE810AD1ED010A401CF5EE400AF1EE10FA1FBF92ED88
:20A7C000011AB5EE401AF1EE10FA00EE810AD1ED020A401CF5EE400AF1EE10FA1FBF92ED66
:20A7E000021AB5EE401AF1EE10FA00EE810A401C0C320C310928CBDBD7ED000A00EEA00ACA
:20A80000F7EE000A80EE800A0DF5AB6023A90322D1ED000A60EE800AC0ED000AD1ED010A33
:20A8200060EE800AC0ED010AD1ED020A60EE800AC0ED020A0C310C30521EE9D1601C0728DF
:20A8400040DB9FED730A00200DF1200105F19402D1ED000AF5EE400AF1EE10FA1FBF92EDCE
:20A86000001AB5EE401AF1EE10FA00EE810AD1ED010A401CF5EE400AF1EE10FA1FBF92EDC7
:20A88000011AB5EE401AF1EE10FA00EE810AD1ED020A401CF5EE400AF1EE10FA1FBF92EDA5
:20A8A000021AB5EE401AF1EE10FA00EE810A401C0C320C310928CBDBDBED000A30EEC00AB5
:20A8C0008BED000A4FF4A2719DA805F07DFC9DAB0DF5AB605FF009014FF0000C0DF12002D4
:20A8E00090ED000AB5EE400AF1EE10FA08BF0CF1020C2AD0D2ED000AF5EE400AF1EE10FA50
:20A900000CF1010C05D093ED001A00EE201A83ED001A0CF1010CD2ED010AF5EE400AF1EE2C
